:020000040800F2
:10000000006C0120F93C0008993B00089B3B00086C
:100010009D3B00089F3B0008A13B0008000000003A
:10002000000000000000000000000000A33B0008EA
:10003000A53B000800000000A73B0008A93B000802
:10004000393D00083D3D0008413D0008453D0008A0
:10005000493D00084D3D0008B13B0008553D0008F2
:10006000593D00085D3D0008613D0008653D000800
:10007000693D00086D3D0008713D0008753D0008B0
:10008000793D00087D3D00087B2D0008853D000876
:10009000893D00088D3D0008913D0008953D000810
:1000A000993D00089D3D0008A13D0008A53D0008C0
:1000B000A93D0008AD3D0008B13D0008B53D000870
:1000C000B93D0008BD3D0008C13D0008C53D000820
:1000D000C93D0008CD3D0008D13D0008D53D0008D0
:1000E000D93D0008DD3D0008BD3B0008E53D0008A6
:1000F000E93D0008ED3D0008F13D0008F53D000830
:10010000F93D0008FD3D0008013E0008053E0008DD
:10011000093E00080D3E0008113E0008153E00088B
:100120008D2E00081D3E0008213E0008253E0008D7
:10013000293E00082D3E0008313E0008353E0008EB
:10014000393E00083D3E0008413E0008E53B0008FE
:10015000493E00084D3E0008513E0008553E00084B
:10016000593E00085D3E0008613E0008653E0008FB
:10017000693E00086D3E0008713E0008753E0008AB
:10018000793E00087D3E00082DE9F041FF2201F88C
:10019000012BD82301F8013B01F8012BDB2201F8E8
:1001A000012B002201F8012B432201F8012B002230
:1001B00001F8012BDFF808280FF61003144640253C
:1001C0000FF648060FF6C40893F800E01EF808C0C2
:1001D000BCFBF0FCBCF1020F38BF4FF0020C02EB8D
:1001E0008E0707F20837A76036F81E705B1C6D1E7D
:1001F0000CFB07FE4FEADE2727604FEA5E0707F198
:100200000067B7FBFEFEC4F804E001F801CB04F27E
:100210000C04D9D10FF6B4005FF0530310F8014B72
:100220005B1E01F8014B10F8014B01F8014B10F86F
:10023000014B01F8014BF1D1C2F80814BDE8F0817F
:10024000DFF87C27D2F81034D2F80814202B35D2EE
:10025000D2F80C341B0E01F8013BFF2B04BF002326
:1002600001F8013BD2F81034182B27D2D2F80C3405
:100270001B0C01F8013BDBB2FF2B04BF002301F88C
:10028000013BD2F81034102B18D2D2F80C341B0AD0
:1002900001F8013BDBB2FF2B04BF002301F8013B57
:1002A000D2F81034082B09D2D2F80C2401F8012B13
:1002B000D2B2FF2A04BF002201F8012BFF2201F86D
:1002C000012BD92201F8012B081A70472DE9F04FB4
:1002D00008220B78CC7991F805E091F804801D197B
:1002E000A5F580761B1B4C788D796719641B8D787A
:1002F000A7F5807705EB0E0CA5EB0E0591F803E052
:10030000ACF5807C01F26E110EEB0809A9F5807A3C
:100310000AEB0609A6EB0A060CEB070AA7EB0C078B
:10032000F7194FF0B50C0AEB090B1CFB07F7C0F8E7
:1003300000B0A9EB0A09C0F8109006EB272CC0F812
:1003400008C0B6EB27268661AEEB0806AF191E196A
:10035000A7EB060C4FF0620E64191EFB0CFCB525D2
:100360004FF08B0E15FB04F41EFB07F74FEA2C2C05
:1003700013EB24250CEB27274FF4A77EB3EB2423A4
:100380001EFB06F6FC184461DB1B0CEB2626C36043
:1003900073194360AB1BC3612030521E99D1BDE875
:1003A000F08F00002DE9F04F082162225FF0B503C5
:1003B000D0F8E0400568066A67192C1BD0F8C050D9
:1003C000D0F8408005EB060C751BD0F8A060D0F883
:1003D000809006EB080ED0F860A0A8EB060609EBAB
:1003E0000A08AAEB090908EB070AA7EB08070EEBB6
:1003F0000C08ACEB0E0CBC4403FB0CFC08EB0A0B2A
:10040000C0F800B0AAEB0808C0F8808007EB2C2EDB
:10041000C0F840E0A7EB2C27C0F8C070671906EBC6
:10042000090CAD19ACEB070E5D4302FB0EFE4FF05D
:100430008B0808FB0CFC4FEA2E2E4FF4A77814EB28
:1004400025260EEB2C2C08FB07F7B4EB25240CEB30
:100450000405C0F8A050A4EB0C040EEB272704669B
:10046000BC190462F41BC0F8E040001D491E9FD176
:10047000BDE8F08F2DE9F04F0546104653F8042BE8
:1004800053F8046B53F8047B0C46D7F800B0099975
:10049000BBF1000F0BD5CBF1000B0BEB5207BA42AF
:1004A0003ABF06FB07F2120C0022524207E00BEBA8
:1004B0005207BA423ABF06FB07F2120C002241B9BA
:1004C000DFF8FC14D1F81464C1F81424A2EB060A76
:1004D00000E09246BAF1000F54BF5246CAF1000242
:1004E0000FF2E461FF2A91BF12F801B0120A525CC8
:1004F00002F1080B0FF2D07202EB8B06728836887D
:10050000A71B012FA4BFBA402A4329DA7C4222FA52
:1005100004F635432E0E00F8016BF6B2FF2E04BF31
:10052000002600F8016B2E0C00F8016BF6B2FF2ECE
:1005300004BF002600F8016B2E0A00F8016BF6B22A
:10054000FF2E04BF002600F8016B00F8015BEDB23E
:10055000FF2D04BF002500F8015BC4F12007BA405D
:100560001FFA8BF4002C3CD0BAF1000F07D50125FF
:1005700005FA0BF5AAF101046D1E05EA040AA7EBC2
:100580000B07012FA4BF0AFA07F4224329DA7C42A1
:100590004AFA04F52A43150E00F8015BFF2D04BF4B
:1005A000002500F8015B150C00F8015BEDB2FF2D92
:1005B00004BF002500F8015B150A00F8015BEDB2ED
:1005C000FF2D04BF002500F8015B00F8012BD2B21B
:1005D000FF2A04BF002200F8012BC4F120070AFA09
:1005E00007F200245FF03F050FF20C7A40F2F97B2E
:1005F0004FF0010C53F8048B53F8049B53F8046B31
:10060000D6F800E0BEF1000F0CD5CEF1000E0EEBD7
:10061000580EF04512D209FB0EF64FEA1648C8F103
:10062000000E08E00EEB580EF04507D209FB0EF65F
:100630004FEA1648C646B8F1000F35D1641C6D1E4E
:10064000D8D13F1F0A21012FA4BFB9400A4380F22D
:10065000E3807B4241FA03F42243140E00F8014B7D
:10066000FF2C04BF002400F8014B140C00F8014BD0
:10067000E4B2FF2C04BF002400F8014B140A00F878
:10068000014BE4B2FF2C04BF002400F8014B00F83A
:10069000012BD2B2FF2A04BF002200F8012BC3F1C4
:1006A000200701FA07F2B7E04FF48076B04523BF88
:1006B0004FEA1826765C06F1080818F80180102C1D
:1006C00040D208EB04160AEB8609B9F80260B9F8C3
:1006D00000900024A7EB0909B9F1010F39DB06FAF4
:1006E00009F616435DE000BFC7F100094BFA09F6B1
:1006F0003243160E00F8016BFF2E04BF002600F8EF
:10070000016B160C00F8016BF6B2FF2E04BF002639
:1007100000F8016B160A00F8016BF6B2FF2E04BF59
:10072000002600F8016B00F8012BD2B2FF2A04BFAB
:10073000002200F8012BC9F120070BFA07F2103C48
:10074000102CBED30B3F012FCEDB0BFA07F6324342
:10075000F5E7C9F1000926FA09F73A43170E00F840
:10076000017BFFB2FF2F08BF00F8014B170C00F808
:10077000017BFFB2FF2F08BF00F8014B170A00F8FA
:10078000017BFFB2FF2F08BF00F8014B00F8012BDF
:10079000D2B2FF2A08BF00F8014BC9F1200906FABE
:1007A00009F6BEF1000F06D50CFA08F7AEF101020A
:1007B0007F1E07EA020EA9EB0807012FA4BF0EFA5D
:1007C00007F2324325DA7A424EFA02F73E43370EF9
:1007D00000F8017BFF2F08BF00F8014B370C00F831
:1007E000017BFFB2FF2F08BF00F8014B370A00F86A
:1007F000017BFFB2FF2F08BF00F8014B00F8016B2F
:10080000F6B2FF2E08BF00F8014BC2F120070EFA26
:1008100007F26D1E7FF4EEAE6949C1F80C24C1F8F1
:100820001074BDE8F08F000030B5654C054681B00E
:10083000294604F20830FFF749FD04F20830FFF7BB
:10084000B1FD002000902346D4F80824D4F81014F9
:10085000D4F80C04FFF70EFEC4F8080405F10801F3
:1008600004F20830FFF732FD04F20830FFF79AFD7A
:10087000002000902346D4F80824D4F81014D4F8AB
:100880000C04FFF7F7FDC4F8080405F5376104F21E
:100890000830FFF71BFD04F20830FFF783FD00204E
:1008A00000902346D4F80824D4F81014D4F80C048B
:1008B000FFF7E0FDC4F8080405F6783104F20830CB
:1008C000FFF704FD04F20830FFF76CFD00200090F4
:1008D0002346D4F80824D4F81014D4F80C04FFF7F5
:1008E000C9FDC4F8080404F2083008215FF00002D2
:1008F00040F8042B00BF40F8042B00BF40F8042B45
:1009000000BF40F8042B00BF40F8042B00BF40F8A4
:10091000042B00BF40F8042B00BF40F8042B00BF9D
:10092000491EE5D1012000902346D4F80824D4F8CC
:100930001014D4F80C04FFF79DFD0121C4F808043D
:10094000009102462346D4F81014D4F80C04FFF7A3
:1009500091FDC4F8080401B030BDF0B5184C81B069
:10096000D4F800130320FFF70FFC0020C4F8140490
:10097000C4F80C042020C4F81004124D0F261427CC
:100980002846FFF751FF10357F1EF9D105F5AD550B
:10099000761EF4D1D4F8000301B0BDE8F0404FE476
:1009A000074A0948D2F8003300F5FA4183420EBFE6
:1009B0000B4603460846C2F80403C2F800337047EA
:1009C000F8050020F40B00200000001000010810C2
:1009D0000902030A11182019120B04050C131A211D
:1009E000283029221B140D06070E151C232A313826
:1009F00039322B241D160F171E252C333A3B342D6C
:100A0000261F272E353C3D362F373E3F0040C55828
:100A10009F53424B00404932A322A811C558217B65
:100A2000FC736268C558BF450B307E189F53FC733A
:100A3000416D54629F53B341412D1217424B62687E
:100A400054627E58424B213BBA28C3140040C5581B
:100A50009F53424B00404932A322A8114932BF455F
:100A6000B341213B49328227371BE00DA3220B30D3
:100A7000412DBA28A322371BBF128E09A8117E1858
:100A80001217C314A811E00D8E09DF04100B0A1011
:100A90001828333D0C0C0E131A3A3C370E0D101863
:100AA000283945380E11161D3357503E1216253879
:100AB000446D674D182337405168715C31404E5783
:100AC00067797865485C5F6270646763FFC0001196
:100AD0000800F0014003012200021100031100FF91
:100AE000C4001F0000010501010101010100000017
:100AF00000000000000102030405060708090A0BB4
:100B0000FFC400B51000020103030204030505043D
:100B1000040000017D01020300041105122131418E
:100B20000613516107227114328191A1082342B149
:100B3000C11552D1F02433627282090A16171819AE
:100B40001A25262728292A3435363738393A434496
:100B500045464748494A535455565758595A63646D
:100B600065666768696A737475767778797A83845D
:100B700085868788898A92939495969798999AA260
:100B8000A3A4A5A6A7A8A9AAB2B3B4B5B6B7B8B985
:100B9000BAC2C3C4C5C6C7C8C9CAD2D3D4D5D6D7AA
:100BA000D8D9DAE1E2E3E4E5E6E7E8E9EAF1F2F3ED
:100BB000F4F5F6F7F8F9FAFFDA000C030100020089
:100BC0000300003F000000000001020203030303D2
:100BD00004040404040404040505050505050505CD
:100BE00005050505050505050606060606060606AD
:100BF0000606060606060606060606060606060695
:100C0000060606060606060607070707070707077C
:100C10000707070707070707070707070707070764
:100C20000707070707070707070707070707070754
:100C30000707070707070707070707070707070744
:100C4000070707070707070708080808080808082C
:100C50000808080808080808080808080808080814
:100C60000808080808080808080808080808080804
:100C700008080808080808080808080808080808F4
:100C800008080808080808080808080808080808E4
:100C900008080808080808080808080808080808D4
:100CA00008080808080808080808080808080808C4
:100CB00008080808080808080808080808080808B4
:100CC00008080808080808080200000003000200DD
:100CD00003000300030004000300050003000600F6
:100CE00004000E0005001E0006003E0007007E0006
:100CF0000800FE000900FE0104000A0002000000D6
:100D0000020001000300040004000B0005001A00AB
:100D1000070078000800F8000A00F603100082FFC0
:100D2000100083FF00000000000000000000000031
:100D300000000000000000000000000004000C00A3
:100D400005001B00070079000900F6010B00F607FB
:100D5000100084FF100085FF100086FF100087FF41
:100D6000100088FF000000000000000000000000EC
:100D700000000000000000000000000005001C0052
:100D80000800F9000A00F7030C00F40F100089FFB7
:100D900010008AFF10008BFF10008CFF10008DFFE9
:100DA00010008EFF000000000000000000000000A6
:100DB00000000000000000000000000006003A00F3
:100DC0000900F7010C00F50F10008FFF100090FFD5
:100DD000100091FF100092FF100093FF100094FF8D
:100DE000100095FF0000000000000000000000005F
:100DF00000000000000000000000000006003B00B2
:100E00000A00F803100096FF100097FF100098FFEB
:100E1000100099FF10009AFF10009BFF10009CFF2C
:100E200010009DFF00000000000000000000000016
:100E300000000000000000000000000007007A0031
:100E40000B00F70710009EFF10009FFF1000A0FF8F
:100E50001000A1FF1000A2FF1000A3FF1000A4FFCC
:100E60001000A5FF000000000000000000000000CE
:100E700000000000000000000000000007007B00F0
:100E80000C00F60F1000A6FF1000A7FF1000A8FF2F
:100E90001000A9FF1000AAFF1000ABFF1000ACFF6C
:100EA0001000ADFF00000000000000000000000086
:100EB0000000000000000000000000000800FA0030
:100EC0000C00F70F1000AEFF1000AFFF1000B0FFD6
:100ED0001000B1FF1000B2FF1000B3FF1000B4FF0C
:100EE0001000B5FF0000000000000000000000003E
:100EF0000000000000000000000000000900F801F0
:100F00000F00C07F1000B6FF1000B7FF1000B8FF41
:100F10001000B9FF1000BAFF1000BBFF1000BCFFAB
:100F20001000BDFF000000000000000000000000F5
:100F30000000000000000000000000000900F901AE
:100F40001000BEFF1000BFFF1000C0FF1000C1FF67
:100F50001000C2FF1000C3FF1000C4FF1000C5FF47
:100F60001000C6FF000000000000000000000000AC
:100F70000000000000000000000000000900FA016D
:100F80001000C7FF1000C8FF1000C9FF1000CAFF03
:100F90001000CBFF1000CCFF1000CDFF1000CEFFE3
:100FA0001000CFFF00000000000000000000000063
:100FB0000000000000000000000000000A00F9032B
:100FC0001000D0FF1000D1FF1000D2FF1000D3FF9F
:100FD0001000D4FF1000D5FF1000D6FF1000D7FF7F
:100FE0001000D8FF0000000000000000000000001A
:100FF0000000000000000000000000000A00FA03EA
:101000001000D9FF1000DAFF1000DBFF1000DCFF3A
:101010001000DDFF1000DEFF1000DFFF1000E0FF1A
:101020001000E1FF000000000000000000000000D0
:101030000000000000000000000000000B00F807A6
:101040001000E2FF1000E3FF1000E4FF1000E5FFD6
:101050001000E6FF1000E7FF1000E8FF1000E9FFB6
:101060001000EAFF00000000000000000000000087
:101070000000000000000000000000001000EBFF76
:101080001000ECFF1000EDFF1000EEFF1000EFFF6E
:101090001000F0FF1000F1FF1000F2FF1000F3FF4E
:1010A0001000F4FF0000000000000000000000003D
:1010B00000000000000000000B00F9071000F5FF21
:1010C0001000F6FF1000F7FF1000F8FF1000F9FF06
:1010D0001000FAFF1000FBFF1000FCFF1000FDFFE6
:1010E0001000FEFF000000000000000000000000F3
:1010F000000000000000000090F803C0BCF1000FE9
:1011000024D1DB1C4FEA630C03EB9C7300EB8200E1
:101110009B10D0F8D00019D013F0030200F0068025
:1011200051F804CB521EC0F800C0F9D19A080DD076
:1011300051F8043B521E036051F8043B036051F820
:10114000043B036051F8043B0360F1D10020704779
:10115000D21C531002EB93729210D0F8D00004D03E
:101160000368521E41F8043BFAD10846704700005C
:1011700030B40022C27001238370202383800129B0
:101180000CD1C17208210170042141704FF4A0718B
:10119000C18002214FF0A04201720AE049B9C17238
:1011A0000C210170062141704FF4A061DFF8842703
:1011B000C180C26002F5006101610021034602F5B1
:1011C000106445784DB19C6104F200255D65457859
:1011D000491C20341B1DA942F5D302F580614161F1
:1011E00002F58861C0F8CC100021034602F5A06426
:1011F00005783DB1C3F890400578491C20341B1D8B
:10120000A942F7D30021034602F58054057845B181
:10121000C3F8D0400578491C1B1D04F58054A94231
:10122000F6D302F56061C0F80C1130BC00207047A5
:1012300070B50446217A82B0E068012933D1816B10
:10124000627A21F480310AB141F480118163C1686E
:10125000DFF8E426DFF8E4561140C160002000907A
:101260002E46032000F0E5FBE068761E0169009140
:1012700012D000990029F4D5009941F001010091A4
:101280000099016101696D1E009102D00099C907A2
:10129000F8D4032000F0CDFBE078012832D1E068DB
:1012A0002A2181602EE0C168DFF8905641F04001AC
:1012B000C160002000902E46032000F0BAFBE068D9
:1012C000761E0169009112D000990029F4D5009989
:1012D00041F0010100910099016101696D1E0091C9
:1012E00002D00099C907F8D4032000F0A2FB4FF404
:1012F0003411607A08B14FF47411E06881631420EE
:1013000000F0A2FBE078012806D1E068816821F0B6
:101310001E0141F02A018160002002B070BDC0684A
:10132000816841F00101816000207047C0688168D8
:101330004908490081600020704700B581B0002253
:101340000092009A42F020020092009A61F38A1201
:101350000092C06800990161DFF8E0150269491E3A
:10136000009202D0009A9206F8D4032000F061FBAC
:10137000002001B000BD00B581B0002100910099AE
:1013800041F010010091C06800990161DFF8AC15CF
:101390000269491E009202D0009AD206F8D40320B6
:1013A00000F047FB002001B000BD00B5C06881B06F
:1013B000C268012922F0C04208BF42F0005202D0A8
:1013C00009B942F08042C260322000F03DFB0020AB
:1013D00001B000BDC068406900F0010080F001006C
:1013E0007047C0684169806908407047F0B504469D
:1013F000D4F80C0100210160206981B0016821F45A
:10140000C0510160E17A012913D1016841F0030163
:101410000160E06840214162DFF824158162DFF855
:101420002415C0F8041140F24111C0F80811C0F8A9
:101430000C11002000900098DFF8005540F02000CB
:101440000090009820F4F86040F480600090E0681C
:101450000099016129460269491E009202D0009A52
:101460009206F8D4032000F0E4FA002000900098DF
:1014700040F010000090E0680099016101696D1E64
:10148000009102D00099C906F8D4032000F0D1FAE7
:1014900020690021016141614FF0FF31816100222B
:1014A000C26100252646FF224FF090436778A7B11E
:1014B000B769D7F800C0BCF1000F4CBF9C464FF095
:1014C000000CC7F800C04FF0000CC7F810C0BA609D
:1014D00067786D1C361DBD42EAD300252646677825
:1014E000B7B1776DD7F800C0BCF1000F4CBF9C4678
:1014F0004FF0000CC7F800C0776D4FF0000CC7F834
:1015000010C0776D6D1CBA606778361DBD42E8D398
:1015100002694FF480731A430261E278012A04BF22
:10152000DFF824240263E268002090616FF08043BA
:1015300053615160DFF8141453619161E17801B98E
:101540001020DFF80C1401B008439169814308436F
:1015500090610020F0BD0000006900218068400813
:1015600000F00300032808D8DFE800F002040604B6
:10157000032102E0022100E001210846704700003B
:1015800001698A688069520802F003020368032A2D
:101590000AD8DFE802F002020502DB0ADB0203E000
:1015A000DA0AD20242F00303036048684FF4807203
:1015B000104348600020704730B44A780B78012A05
:1015C00000EB830205D1012404FA03F392699BB274
:1015D00004E0012404FA03F3526D1B04146825048B
:1015E00015D4DFF870532C408D686D0554EA5554BE
:1015F000CD78C988AD0405F4402589052C4301F058
:101600007071214341F0805141F400411160006943
:10161000C1691943C16130BC002070470A7849781C
:101620004FF0010C00EB82030CFA02F2012907BF14
:10163000996992B2596D120400230B600069C16967
:101640009143C16100207047F0B40A784D6900EB06
:1016500082034A78012A72D19C692268246925B9DB
:1016600004F0604444F4002411E08E6877197F1E72
:101670006D03B7FBF6F66D0B45EAC64565F31C0432
:10168000CD78012D04BF24F0C04444F000549B6980
:101690001C61C378012B06D10B780C6900EB830326
:1016A0009B695C610CE0CB78012B0CD04B6993B14A
:1016B000036901255C6B91F90060B5402C435C63C4
:1016C000CB78012B07D103699B68DB0554BF42F03F
:1016D000005242F080520B7842F0044200EB830348
:1016E0009B691A60CA78012A02BFCA68C378002BB6
:1016F00058D18B8A0978DB1C5C1003EB947300EBE8
:1017000081009B10D0F8D0004CD013F0030104D01E
:1017100052F8044B491E0460FAD1990800F0428047
:1017200052F8043B491E036052F8043B036052F830
:10173000043B036052F8043B0360F1D132E05C6D7E
:10174000226824698E6835B975036D0B45F4002550
:1017500065F31C040AE075196D1EB5FBF6F565F31B
:10176000DC44C4F3C945754365F312045B6D1C6129
:10177000C378012B05D10B780C6900EB83035B6DFB
:101780005C61CB78012B06D14B79002B14BF42F062
:10179000005242F08052097800EB8100406D42F027
:1017A00004410160F0BC00207047F0B482B0002218
:1017B00000924A784C69012A38D183691A681D69F8
:1017C000009524B92C46644D2C4000940FE08D68A0
:1017D000A54205D24D61009C65F30604009403E028
:1017E000009D64F306050095009C24F4C01444F4A5
:1017F00000240094009C1C61C478012C05D10C7855
:101800000D6900EB8404A469656142F004421A602A
:10181000C2788ABB4A697AB300690123426B91F9A5
:10182000001003FA01F11143416325E00A784A4FA1
:1018300000EB82035D6D2A682D690095009E8D681E
:101840003E4005F07F073E4346F4002604B14D615B
:1018500000965B6D009C1C61C378012B05D10B7851
:101860000C6900EB83035B6D5C61097800EB810020
:10187000406D42F00441016002B0F0BC00207047AE
:101880004A780978012A00EB810006D18069016855
:10189000002904D541F0804101E0406D016841F428
:1018A00000110160002070474A78012A0A7800EB95
:1018B00082000CBF8069406D0268C97822F4001272
:1018C000032914BF022942F08052026000207047B1
:1018D00000698169C0690840000C704700EB810114
:1018E000496D8968006940690840704700698169ED
:1018F000C069084080B27047416D184A0A61C178DA
:10190000012908D1416D00F2CC524A61406D016855
:101910004FF0802101607047817A51B10169896877
:10192000C90706D5D0F80C11D0F80C018908890038
:101930000160704700000440BFFFB5FF410D030088
:10194000400010005000F1000301810000080080F9
:1019500008380C0000F833FC80FFE7FF180008C0CF
:1019600010B582B00121012000F0BBF84FF4D8502F
:10197000009003208DF8050002208DF8040000205F
:10198000364CADF8060000A9204600F0E9F80A221E
:101990000821204600F024F90A220921204600F0FF
:1019A0001FF90A220B21204600F01AF90A220C2105
:1019B000204600F015F94FF48060009001208DF86A
:1019C00006008DF8070003208DF8050000A92046C9
:1019D00000F0C6F80A221146204600F001F9012164
:1019E0004FF4804000F098F80121802000F082F848
:1019F00001214FF0805000F098F8012000F038F9F4
:101A000002B010BD00B581B04FF4C06000F038F9ED
:101A100043208DF8000001208DF8010003208DF88F
:101A2000020001208DF8030000A800F02EF901B09B
:101A300000BDC0EB0012D00007220021B0FBF2F085
:101A4000491C8842FCD27047054A002150430722B6
:101A5000B0FBF2F0491C8842FCD270470000024003
:101A6000C0D4010035494A6802F00C02042A02D0B1
:101A7000082A02D017E0324A16E00A680B685202C0
:101A800003F03F034CBF2E4A2E4AB2FBF3F20B6821
:101A9000C3F388135A430B68C3F301435B1C5B0019
:101AA000B2FBF3F200E0274A02604B68264AD0F806
:101AB00000C0C3F303139B5C2CFA03F343604B6831
:101AC000D0F804C0C3F382239B5C2CFA03F3836039
:101AD00049684368C1F34231895C23FA01F1C1606E
:101AE00070471A4A0029116814BF084321EA000010
:101AF00010607047164A0029116814BF084321EA94
:101B0000000010607047134A0029116814BF084391
:101B100021EA0000106070470F4A0029116814BFC5
:101B2000084321EA0000106070470C4A0029116840
:101B300014BF084321EA00001060704704380240D7
:101B400000127A000024F400D40B00203038024048
:101B500034380240403802404438024020380240C5
:101B6000F0B40022002301240E6804FA02F52E408E
:101B7000AE422FD103269E400768F64337400760E8
:101B8000076891F804C00CFA03FC4CEA07070760E9
:101B90000F79012F18BF022F14D187683740876053
:101BA000876891F805C00CFA03FC4CEA07078760C8
:101BB000476827EA0505456045688F799740BFB2B9
:101BC0003D434560C5683540C560C568CE799E40D7
:101BD0003543C560521C9B1C102AC5D3F0BC70470E
:101BE000CB1000EB830001F007018900036A4FF07E
:101BF0000F0C0CFA01FC23EA0C030362036A02FADD
:101C000001F119430162704730B401688279CB4316
:101C1000194932B30A4614682340136053680468B4
:101C2000A34353600379CC18236805682B432360D2
:101C300093680468A3439360D3680468A343D360A4
:101C400043790568102B07D1916829439160D168C9
:101C500000680843D06009E051FA83F42068284303
:101C600003E000790C1820681840206030BC7047F1
:101C70000249086070470000003C0140143C0140EC
:101C80001849084318490860704770B40378012167
:101C9000C4781A46ECB1144B0F261B68447803F441
:101CA000E063C3F5E0631B0AC3F10405AC4085782B
:101CB00046FA03F32B4023430C4C1B0113550078C9
:101CC0000B4B421100F01F0001FA00F043F8220014
:101CD00006E05011074A03F01F03994042F8201014
:101CE00070BC70470000FA050CED00E000E400E075
:101CF00000E100E080E100E030B504464A78DFF81A
:101D0000500481B002704A78092A00F2A080DFE80E
:101D100002F0438A9E559E09059E2C28204600F01D
:101D200045F99FE08888002804BFC888002840F053
:101D30008E80887800F07F0594F81201032800F067
:101D4000868084F814512946204600F075FB204611
:101D500000F0B0FB002D14BF0220012084F8120116
:101D600080E0204600F09CF97CE0C98801296ED112
:101D700094F81211022908D0032968D1012204F233
:101D80001011204600F060FB6CE000F10801012218
:101D9000204600F059FB65E094F81211891E0129D4
:101DA00055D800214160D4F8181109B102214160D1
:101DB000011D0222204600F047FB53E0488801281D
:101DC0003AD0022802BF8888C1B200294AD12169CD
:101DD000000A401E496804281CD8DFE800F01712EA
:101DE0000D08030021F0700040F0500112E021F0D6
:101DF000700040F040010DE021F0700040F0300133
:101E000008E021F0700040F0200103E021F07000B4
:101E100040F01001CF480160012084F816012046EF
:101E200000F048FB1EE094F81201801E01280ED835
:101E30004888012816D10020C4F81801D4F8E425F8
:101E4000204692689047204600F034FB0AE080214B
:101E5000204600F0A3FA0021204600F09FFA204619
:101E6000FFF74AFD002001B030BD30B5044694F8BC
:101E7000120181B00D4603280ED1A888C0B20228F5
:101E80000AD2D4F8E425204692689047E88870B9D1
:101E9000204600F00FFB0AE08021204600F07EFA89
:101EA0000021204600F07AFA2046FFF725FD0020A9
:101EB00001B030BD30B50D466978044681B028794F
:101EC00003296FD8DFE801F0371C6E0294F8121175
:101ED000022937D003295AD1698839B9002818BF97
:101EE000802803D00146204600F058FAD4F8E425B3
:101EF0002946204692689047204600F0DBFA51E0E0
:101F000094F8121102291DD0032940D169880029B3
:101F100048D1002818BF802809D00146204600F08B
:101F20005DFAD4F8E4252946204692689047204679
:101F300000F0C0FA36E094F81211022902D0032909
:101F400009D024E0002818BF80282BD00146204665
:101F500000F024FA26E08049020608D500F07F0050
:101F600000EB800204EBC20090F81E0105E000EBDC
:101F7000800204EBC20090F87603421E9241D243E5
:101F8000D20F0A600222204600F05EFA0AE08021A9
:101F9000204600F003FA0021204600F0FFF9204619
:101FA000FFF7AAFC002001B030BD000030B50446A8
:101FB0000D46688881B0010A012904D064D3032941
:101FC00030D011D360E0D4F8EC2500A9A0781268D5
:101FD0009047E98840291CBF94F8121101290DD1BE
:101FE0000821ADF800100CE0D4F8E42500A9A07891
:101FF000926A904702214170C4F8F005BDF80010C4
:1020000071B1E98861B1BDF800208A4288BF0A46F3
:10201000ADF800200146BDF80020204600F014FA7B
:1020200001B030BDC0B205282ED8DFE800F0030AA9
:1020300011181F26D4F8EC2500A9A0785268904703
:10204000DCE7D4F8EC2500A9A07892689047D5E7A2
:10205000D4F8EC2500A9A078D2689047CEE7D4F850
:10206000EC2500A9A07812699047C7E7D4F8EC25C1
:1020700000A9A07852699047C0E7D4F8EC2500A9E0
:10208000A07892699047B9E78021204600F086F950
:102090000021204600F082F92046FFF72DFCBFE723
:1020A00030B5044648882D4D81B028702878022824
:1020B00040D294F81211022902D0032916D039E037
:1020C00070B184F81001032184F8121101462046F2
:1020D00000F029FB204601B0BDE8304000F0EAB92D
:1020E000204601B0BDE8304000F0E4B978B90220E4
:1020F00084F81201002084F810010021204600F02D
:102100001EFB204601B0BDE8304000F0D3B994F882
:1021100010118842204608D000F011FB2978204693
:1021200084F8101100F0FFFA204601B0BDE83040FD
:1021300000F0C0B98021204600F030F9002120468F
:1021400000F02CF9204601B0BDE83040FFF7D4BBC9
:10215000E8630120F4630120F8630120FE6301209D
:1021600090F8CC250A7090F8CD254A7090F8CE25CD
:1021700090F8CF3512EB03224A8090F8D02590F8E2
:10218000D13512EB03228A8090F8D22590F8D3350E
:1021900012EB0322CA80C988C0F84011012180F8DF
:1021A0001111704710B50446802100F0F7F80021A6
:1021B000204600F0F3F82046BDE81040FFF79CBB36
:1021C00000B9704730B40346002493F8005025B19D
:1021D00013F8015F641C002DFAD12406E30D9B1C4B
:1021E000138012880A7003224A70022209E000BF9D
:1021F00010F8013BD2B25354521CD2B200235354B4
:10220000521C0378002BF3D130BC704710B5044644
:10221000FEF7AEFF012084F81201002084F81401BB
:1022200000212246607890B102F21C100123437015
:102230000170C1800023C370202383600023C3602A
:1022400043616078491C02F228028142ECD30021EC
:10225000224694F8010088B102F2743000234370E2
:102260000170C180C370202383600023C360436179
:102270006078491C02F228028142EDD32046FFF724
:1022800055F82046FEF7D4FF00212046FFF78DF8D1
:102290002046FFF7ABF82046BDE81040FFF73FB8F7
:1022A00030B501F07F0404EB840500EBC50481B078
:1022B0000D064CBF04F21C1404F2743401F07F05C7
:1022C0002570C9096170A260E370617809B1217855
:1022D000E180022B04BF002121712146FFF76CF938
:1022E000002001B030BD01F07F0200B502EB820397
:1022F00000EBC30281B00B064CBF02F21C1202F2CB
:10230000743201F07F031370C90951701146FFF751
:1023100085F9002001B000BD30B501F07F0404EB69
:10232000840500EBC50404F27434E26063610023A9
:10233000A361637001F07F012170C17881B0012930
:1023400008BF226121780029214602D1FFF72DFA2A
:1023500001E0FFF779F9002001B030BD30B501F0A0
:102360007F0404EB840500EBC50404F21C14012572
:10237000657001F07F012170E26022610021A1619E
:102380006361217881B00029214602D1FFF70DFA5F
:1023900001E0FFF759F9002001B030BD00B581B070
:1023A0000B0608D501F07F0202EB820300EBC302AB
:1023B00002F21C1205E001EB810300EBC30202F202
:1023C00074320123937001F07F031370C9095170B7
:1023D0001146FFF755FA002001B000BD00B581B0ED
:1023E0000B0608D501F07F0202EB820300EBC3026B
:1023F00002F21C1205E001EB810300EBC30202F2C2
:1024000074320023937001F07F031370C909517077
:102410001146FFF749FA002001B000BD00B581B0B8
:102420000A0604D501F07F01FEF787FF01E0FEF701
:10243000A2FF002001B000BD00690901026801F49B
:10244000FE6111430160704700B5C0F83C21C0F83F
:102450003821022380F8113113460A4681B0002149
:10246000FFF77CFF002001B000BD00B513460A460F
:1024700081B00021FFF772FF002001B000BD00B560
:10248000C0F89423C0F89023032380F81131134639
:102490000A4681B00021FFF73FFF002001B000BDD8
:1024A00000B513460A4681B00021FFF735FF002032
:1024B00001B000BD10B50446042084F811010022CB
:1024C000002311462046FFF749FF2046FFF714FA84
:1024D000002010BD10B50446052084F8110100222B
:1024E000002311462046FFF717FF2046FFF704FAA6
:1024F000002010BD2DE9F04104460D4616469846D1
:10250000069FFFF72DFAC4F8E485C4F8E875C4F80F
:10251000EC6529462046FFF779FED4F8E805006807
:1025200080472046BDE8F041FFF76CBA10B582B095
:10253000044600A9FFF714FE9DF8000010F01F00EC
:1025400003D002280BD005D30EE000A92046FFF7E8
:10255000D3FB10E000A92046FFF787FC0BE000A9A1
:102560002046FFF7A7FC06E09DF8000000F0800180
:102570002046FFF713FF002002B010BD10B504463F
:1025800049BB94F8111104F2743003292ED1C169AA
:1025900082688A4210D2891AC161E378012B02D184
:1025A000C368D318C360914238BF0A46C16892B26B
:1025B0002046FFF775FF19E0D4F8E425106930B123
:1025C00094F81201032802D1204611698847204659
:1025D000FFF770FF0AE0D4F8E425906930B194F871
:1025E0001201032802D1204692699047002010BDB5
:1025F00030B581B00446002943D194F8110104F2AA
:102600001C15022831D1E869A96881420DD2421A0D
:10261000EA61E078012802D1E8680818E86092B21F
:10262000E9682046FFF721FF1FE0286AB0FBF1F2BE
:1026300001FB12025AB9884209D3696A884206D25C
:1026400000212046FFF711FF002068620DE0D4F85A
:10265000E425D06830B194F81201032802D1204655
:10266000D16888472046FFF735FF94F81601012806
:1026700012D10B49206909684160002084F81601D5
:102680000AE0D4F8E425506930B194F81201032827
:1026900002D1204652699047002001B030BD0000B1
:1026A000F463012010B50446002320220021FFF727
:1026B000F7FD0023202280212046FFF7F1FD0120B5
:1026C00084F81201D4F8E815A078496888470020FA
:1026D00010BD10B50446D4F8E8050069804794F8A9
:1026E000130184F81201032084F81201002010BDA8
:1026F00000B590F8121181B080F81311042180F810
:102700001211D0F8E805C0688047002001B000BD74
:1027100000B5D0F8E41581B0C9690A0018BF884730
:10272000002001B000BD10B50446D4F8E4251268BD
:102730009047D4F8E80580688047002010BD00B5B8
:10274000D0F8E42581B052689047002001B000BD68
:1027500000B5D0F8E41581B0096A8847002001B0BF
:1027600000BD00B5D0F8E41581B0496A8847002063
:1027700001B000BD70B582B004460026FEF72AFE07
:10278000002800F09C802046FEF72BFE054628031B
:1027900003D5204600F0FEF80646680303D5204620
:1027A00000F090F80643A80702D5E06802214161D5
:1027B000002D19D5A07A30B1D4F80C01D4F80C1141
:1027C000800880000860206941684908490041602C
:1027D000DFF8D0132046096889698847E0684FF020
:1027E0000041416146F0010628052FD500208DF8F3
:1027F000000094F81201DFF8AC138DF800000968AE
:1028000020464969884720694FF400628068E16882
:102810004A61A17AC1B1C00716D594F81501012803
:1028200004BF9DF8000003280ED1D4F80C01016804
:1028300041F001010160016841F003010160DA48E3
:10284000016841F00601016046F00106280709D53C
:10285000D44920460968C9688847E0680821416171
:1028600046F00106E80603D5204600F0E7F80643E7
:10287000E80403D5204600F060F90643A8041ED5FD
:102880002046FEF77DFEE068C06820F470552046C3
:10289000FEF762FE032802BF00214FF4007245F4E8
:1028A000105003D00121202245F4A050A280A17035
:1028B000E16846F00106C8604FF4005048613046B8
:1028C00002B070BD2DE9F04782460025FFF70EF8F3
:1028D00006465746DFF8CC824FF00109002E56D04D
:1028E000F0074FD5DAF810000169426BEAB20AEB43
:1028F0008202926901F00103926802F001021A4219
:102900001BD0416B09FA05F291434163B86949460E
:102910008160D8F800200124E9B2504652689047FF
:102920009AF80300012802BF002D9AF8110104282B
:102930000AD15046FEF7E0FF06E02946504600F077
:10294000B8F8B8698024846000BF200702D5B86950
:1029500008248460E00602D5B8691024846060060B
:1029600002D5B86940248460A00702D5B869022462
:102970008460200606D52946504600F09AF8B869CA
:10298000802181606D1C76083F1D002EA8D101209A
:10299000BDE8F0872DE9F04781460025FEF798FF56
:1029A00004464E46CA46DFF8FC81002C43D0E007BF
:1029B0003AD5E9B24846FEF791FF0746C00723D54E
:1029C000706D0121816099F803000127012808D169
:1029D000706D0069DAF87C134003B1EB5030CAF82F
:1029E0008C03D8F80020E9B248461268904799F85D
:1029F0000300012808BF002D06D199F81101052810
:102A000004BF4846FEF778FFB80703D5706D022172
:102A100002278160380707D5D8F800104846896832
:102A20008847706D082181606D1C6408361D0AF2AC
:102A3000280A002CBBD10120BDE8F08770B5044600
:102A4000E068816921F010018161056A05F00F00DD
:102A500000EB800104EBC10000F27436680C00F05A
:102A60000F00022802D0062811D01BE028094005DB
:102A700018D0C5F30A12F1682046FEF769FBF16829
:102A8000C5F30A104118F160B169401809E0082245
:102A900004F2CC512046FEF75BFBB069C5F30A1186
:102AA0000818B061E068816941F01001816101207E
:102AB00070BD2DE9F0438046894609EB890008EB9B
:102AC000C00000F21C167069B169B568401A81B087
:102AD000854288BF0546E81C840808EB8907B86969
:102AE000806980B284423EBF7069B169814220D260
:102AF000F8B1B568401A854288BF0546E81C8408CD
:102B0000ABB25FFA89F2F1684046FEF7F5FAF06879
:102B10002818F060B0692818B06171698842DED366
:102B2000D8F810000122416B96F900309A40914389
:102B30004163012001B0BDE8F08310B5044620696F
:102B4000416849084900416000212046FEF7F5FB35
:102B500000202146FF22637843B18B69401C9A60B4
:102B60004B6D091D9A6063789842F6D320694FF047
:102B7000FF3181614FF00111C1610B2141610161A0
:102B8000016821F4FE6101602046FEF7B5FEE068B1
:102B90004FF480514161034920460968096988471B
:102BA000012010BDEC0B002010ED00E010B588B046
:102BB00001214FF48060FEF7AFFF4FF000700190ED
:102BC00000208DF8080001208DF8090000200390F6
:102BD000049005908DF8180001A9C64800F0EAF9A4
:102BE000C54C002301220C21204600F023FA01A944
:102BF000204600F0DFF92822FF21204600F017FAD6
:102C00004FF40001204600F00CFA12208DF800006D
:102C100000208DF801008DF8020001208DF80300DE
:102C200000A8FFF732F801224FF48371204600F02C
:102C30005BFA0121204600F0EBF9204600F03AFA59
:102C40004FF44070FFF71CF808B010BD30B59DB0D0
:102C50000121AA48FEF745FF01214FF44070FEF71D
:102C60005BFF0420019003208DF8080000208DF800
:102C70000B0001A9A248FEF773FF00200D90A148A8
:102C8000A14C0E90A1480DA90F9000201090B720E4
:102C90001190002012904FF4806013904FF4006068
:102CA00014904FF400501590002016904FF400300F
:102CB0001790002018900120199000201A901B9066
:102CC000204600F01DFA38208DF800000A208DF80B
:102CD00001008DF8020001208DF8030000A8FEF726
:102CE000D4FF01221021204600F03CFA01212046A9
:102CF00000F02FFA072003904FF4007006904FF475
:102D0000404005900020049003A800F073F94FF0B4
:102D10000070079000208DF8200001208DF8210020
:102D2000002009900A900B900120724C8DF8300021
:102D300007A9204600F03EF9002301220C2120467D
:102D400000F078F9724D07A9284600F033F9002306
:102D500001220C21284600F06DF9012000F0AFF9A6
:102D60000121204600F054F90121284600F050F9D5
:102D7000204600F09FF91DB030BD70B582B0002034
:102D8000644CADF8000060785B4E002871D10022E1
:102D90002D21304600F04BF95F480568A088ADB2A0
:102DA000A842B1BF281A4FF6FF71081A2818ADF8CB
:102DB0000000BDF800003F284CD3BDF800004228B9
:102DC00048D22078022845D1A078012807D10020D8
:102DD000A070E0804D48A580A06001204FE0E08811
:102DE000401CE08080B2112804D14C490A6882F46A
:102DF00000420A60A0F11101F0291ED2424E0021CA
:102E0000304600F0A6F9B7207060A0680121F0609C
:102E100000F26E10A060304600F09BF901213C48A2
:102E200000F0F6F8334E0121304600F0F1F830465C
:102E300000F040F9A580012021E040F20111884214
:102E400014D3002020700021304600F0E1F8A58066
:102E5000012014E0BDF800001F2807D3BDF80000D2
:102E6000222803D20120A07002202070A58001201A
:102E700005E02822FF21304600F0D9F800206070DC
:102E800027480021016002B070BD000030B51E4C23
:102E9000244D81B02946204600F07AF978B12946C0
:102EA000204600F098F90021124800F0B1F8002106
:102EB000174800F0ADF81748C178491CC17000BF31
:102EC00001B030BD10B513480121017000214170DF
:102ED0008170094CC1702822FF21204600F0A7F81C
:102EE0000121204600F094F82046BDE8104000F093
:102EF000E1B8000000200140002201400400400031
:102F0000000802400823014010640240F40B002036
:102F100000210140DC63012024000040140C024029
:102F2000004024422080001010B588B0012101200B
:102F3000FEF7E9FD00A800F0A4F95320ADF8000069
:102F400000204FF6FF74ADF80200019400A94FF085
:102F5000804000F059F903A800F0ECF90020ADF82A
:102F60000C000120ADF80E000020ADF8180005940B
:102F700003A94FF0804000F097F903A94FF080407B
:102F800000F092F901214FF0804000F083F908B081
:102F900010BD50F8041B61B150F8042BD30744BF97
:102FA000A9F101039A18002342F8043B091FFAD142
:102FB000EFE770474268474B1A400B7942EA032219
:102FC0000B681A4342608268434B1A400B691A43EC
:102FD000CB681A438B681A434B7942EA43028260FA
:102FE000C26A097D22F47002491EC9B242EA015147
:102FF000C162704739493A4B0A681A4003681A435C
:1030000043681A438368C0681A43104308607047D6
:103010000029816812BF41F001014908490081601F
:10302000704742682F4B1A4011434160704741621C
:103030008262704770B407240A290BD3A1F10A05F4
:1030400005EB4505C668AC4026EA0404AB402343C3
:10305000C36008E001EB41050669AC4026EA0404C0
:10306000AB40234303611F23072A0AD2521E02EBFF
:103070008202446B934024EA030391401943416365
:1030800016E00D2A0AD2D21F02EB8202046B934093
:1030900024EA030391401943016309E00D3A02EB6E
:1030A0008202C46A934024EA030391401943C16237
:1030B00070BC7047816841F080418160704707496A
:1030C0000028086814BF40F4005020F40050086045
:1030D00070470000FFFEFFFCFDF7FFC00423014026
:1030E000E030FCFFFFFD3FFF0123002A03FA01F15E
:1030F000426814BF114322EA010141607047000099
:1031000002683D4B1A400B681A43CB681A434B695F
:103110001A438B691A43CB691A430B6A1A434B6AE9
:103120001A438B6A1A434B6B1A438B6B1A43026028
:1031300042690B6BD1F82CC0D2084CEA030353EA66
:10314000C20242610A6942604A6882608968C1605D
:1031500070470029016812BF41F001014908490088
:10316000016070470B0607D5002A436914BF43F07E
:10317000800323F080034361802908D0002A01F0F6
:103180001E01026814BF114322EA01010160704769
:10319000DFF860C00022194B604528BF03F20043EE
:1031A000DFF860C011EA0C0F1EBF006800EAD120F2
:1031B00000F01E0004BF406900F080005FEA810C4F
:1031C0004CBF5B681B6819400D4B19421CBF00289F
:1031D000012210467047074B084A984228BF02F266
:1031E000004207480840890001D5D06070479060D0
:1031F00070470000106402403F801CF000600240F5
:103200007D0F7D0F3C0F3C0F434A038890421CBF4B
:10321000DFF81CC160450ED0B0F1804F1CBFDFF855
:10322000FCC0604507D0DFF8F8C060451CBFDFF880
:10323000F4C0604507D14FF68F7C0CEA0303B1F868
:1032400002C04CEA0303DFF8E0C060451CBFDFF8B2
:10325000DCC0604507D04FF6FF4C0CEA0303B1F821
:1032600008C04CEA030303804B689042C3620B889A
:10327000038519BF2E4A9042897A018601218182F5
:1032800070474FF0FF314160002101800181418092
:10329000817270470029018812BF41F001014FF689
:1032A000FE7211400180704770B4028C4FF6EF73CC
:1032B00048F6FF451A400284048C8288038B4E88AE
:1032C0002B400D8843EA05234FF6DF752C408D898E
:1032D000354344EA0514104DA8421CBF144DA842C2
:1032E00013D14FF67F752C40CD894E8A44EA0514E0
:1032F0004FF6BF752C408D8844EA05144FF2FF3518
:103300002A400D8A354342EA850282800383896818
:103310008163048470BC70470000014000040040D9
:1033200000080040000C0040001000400014004065
:103330000004014000210180418081808160818101
:10334000C18101824182704700B581B0012340F202
:1033500002328121FEF7A4FF002001B000BD00B5BC
:1033600081B08121FEF7BFFF002001B000BD30B564
:1033700004460D46287881B010F0600037D0202830
:103380006ED16878401E1AD08038022801D9801F7B
:1033900028D100212046FFF741F868884FF480715A
:1033A000884204BFEA88864939D04FF400718842C8
:1033B00056D1EA8883492046FFF746F850E0EA886C
:1033C000002A4DD068884FF48071884208BF7C493C
:1033D00004D04FF40071884242D17A492046FFF769
:1033E0004EF83DE02046FEF7DDFE022039E0687829
:1033F000062804D00A2810D00B2814D030E06888A2
:10340000000A212804D1EA886F49A02A28BF9F22F8
:1034100092B22046FFF718F822E001226B492046BD
:10342000FFF712F81CE06888C1B2022914D2684D77
:10343000C0B2E860012805D1022000F0F8F80120B0
:10344000A8700DE0022000F0FBF881212046FEF775
:10345000E5FF0020A87003E029462046FEF7A2FE03
:10346000002001B030BD00207047000030B5ADF540
:10347000417D04468121FEF7D1FF554DE87818B112
:10348000A888401CA88020E052480078E8B10120BC
:10349000E870FDF785FA5048012101700020A880EE
:1034A00068784FF4407180F0010068700020286156
:1034B0004A48008890FBF1F1491CE980491E01EB64
:1034C0004102A0EB0220801C28812878444A296907
:1034D0008DF80000687812688DF8010089180DF1E8
:1034E0000200602211F8013B00F8013B11F8013B9A
:1034F00000F8013B11F8013B00F8013B11F8013BDA
:1035000000F8013B11F8013B00F8013B11F8013BC9
:1035100000F8013B11F8013B00F8013B11F8013BB9
:1035200000F8013B2B6908332B61521EDAD1A878D1
:1035300002281FD1E988A888491E884207DA40F28C
:10354000023300AA81212046FEF708FF17E0E87841
:10355000012808D12B8900AA81212046FEF7FEFE12
:103560000020E8700BE002232A4681212046FEF766
:10357000F5FE02E04FF6FF70A880002028610020D1
:103580000DF5417D30BD0020704730B5104D04462B
:10359000A87881B001280BD181212046FEF73EFF9B
:1035A0000223022281212046FEF7D8FE0220A870C5
:1035B000002001B030BD9F2008800A4870470000FD
:1035C000480A0020240A00207E0A00201C0A00204D
:1035D000100A00200000002001000020020000204E
:1035E000FC0800206C0A002010B504460FF20C10F5
:1035F00082B0012150F82400FEF773FA0FF2F400B4
:1036000000A930F81400009001208DF8040000207B
:103610008DF8060001208DF8070002208DF80500C6
:10362000324850F82400FEF79BFA02B010BD2F4933
:103630000FF2C00251F8201032F8100008837047D2
:103640002A490FF2B00251F8201032F810004883D6
:10365000704730B504460FF2B8000D4685B0012121
:1036600050F82400FEF73DFA01214FF48040FEF7A8
:1036700053FA00208DF810008DF813000FF28C0023
:1036800003A930F814000390194850F82400FEF7FD
:1036900067FA012D28D10FF28400215C0FF2780027
:1036A000205C00F03FF80FF26C0030F8140001903D
:1036B00000208DF8080008208DF8090001208DF801
:1036C0000A0001A8FEF7A0FA0FF25400205C8DF862
:1036D00000000F208DF801008DF8020001208DF808
:1036E000030000A8FEF7D1FA05B030BDC40B0020DE
:1036F000E80B0020001000200040008008000000BF
:1037000008000000080000000800000001000000A0
:1037100001000000010000000000000000000000A7
:103720000600000030B401F00302074B21F0030152
:103730009200CC580F259540AC43CC50CC589040CB
:103740002043C85030BC70470838014030B589B0BC
:1037500000210020FFF77DFF0020FFF745FF01203B
:10376000FFF742FF0220FFF73FFF0320FFF73CFF78
:1037700005A8FEF777F95248524C0090524B534A35
:103780000121201DFEF7B6FEFFF7CEFBFFF75EFA24
:10379000FFF70CFA01A8FEF765F9029842F21071E2
:1037A000B0FBF1F000EB8001480001E00098401E02
:1037B000009000980028F9D16078454D0128FBD190
:1037C00028780128FCD0002060702070FFF77AFB79
:1037D00000E000BF28780028FBD10025284600F033
:1037E00013F86D1CF02DF9D33A4D286840F40050C1
:1037F0002860FDF7B2F86080286820F40050286047
:1038000001202070D8E70000334A4FF4B7711268E6
:1038100011FB00200322C17800F20303C91DC9B2C5
:1038200013F801CB6145A2BF521C13F801CB6145CF
:1038300002DB521C412AF3DB1118497902F11B0308
:103840009BB21A5C891CC9B2521A52000270421C07
:103850001818401C5FF0350310F801CB5B1EACEB71
:10386000010C4FEA4C0C02F801CB10F801CBACEB89
:10387000010C4FEA4C0C02F801CB10F801CBACEB79
:10388000010C4FEA4C0C02F801CB10F801CBACEB69
:10389000010C4FEA4C0C02F801CB10F801CBACEB59
:1038A000010C4FEA4C0C02F801CB10F801CBACEB49
:1038B000010C4FEA4C0C02F801CBCDD1704700004F
:1038C000800B002000000020380B0020640B00203B
:1038D000DC630120140C0240E40B0020122008805D
:1038E0001F487047042008801E48704710B51E4CC2
:1038F0000A46002821460CBF0FF270000FF290001C
:10390000FEF75EFC204610BD10B5174C0A46214656
:103910000FF2A000FEF754FC204610BD10B5124C6B
:103920000A46002821460CBF0FF290000FF29C00BF
:10393000FEF746FC204610BD10B50B4C0A460FF2B0
:103940009C002146FEF73CFC204610BD10B5064CFD
:103950000A460FF298002146FEF732FC204610BDC1
:10396000B00B0020F00B00201463012053544D33A2
:103970003220564944454F2053747265616D696E1B
:103980006720696E204853204D6F64650000000079
:1039900053544D333220564944454F205374726579
:1039A000616D696E6720696E204653204D6F6465B6
:1039B00000000000434954495A454E003030303031
:1039C000303030303033344600000000303030309A
:1039D0003030303030333445000000005649444523
:1039E0004F20436F6E6669670000000056494445EA
:1039F0004F20496E74657266616365003748384AC6
:103A0000016882B041F0010101600021816001681C
:103A10001140016033494160016821F48021016057
:103A20000021C16001910091016841F48031016081
:103A3000016801F4003100910199491C019100993C
:103A400019B90199B1F5A06FF2D10168490C01F0E3
:103A500001010091009901292CD1016C41F08051A4
:103A6000016421490A6842F480420A6081688160E9
:103A7000816841F400418160816841F4A051816016
:103A80001A494160016841F0807101600168890153
:103A9000FCD540F20561C0F80014816889088900EE
:103AA0008160816841F002018160816801F00C0150
:103AB0000829FAD1816821F4000181600C49C0F81D
:103AC0008410016841F08061016001680901FCD542
:103AD00008484FF00061016002B0704700380240B2
:103AE000FFFFF6FE1030002400700040085440072D
:103AF0008040003008ED00E02DE9F04100F10801C0
:103B0000026801EB820243685808400002EB800023
:103B100000240025264601270EE0F44518BFAC42DC
:103B200008D014F8018B0CF8018B761E36B2002EEB
:103B3000F3D50127F44513D1824201D1BDE8F081CC
:103B400052F804CB5FEAC37E48BFCC4452F804EB82
:103B5000E644EFE70C686418091D51F8045B2D1961
:103B6000AC42F7D05FB114F9016B002705E00C6897
:103B70006418091D51F8045B2D19AC42F7D0002ED2
:103B8000D4D514F8018BF445D4D00CF8018B761CF5
:103B900036B2002EF7D4CCE77047FEE7FEE7FEE72B
:103BA000FEE7704770477047104801210170704769
:103BB0000F48012101700120FEF75AB810B50D4CD5
:103BC000A07A48B10C48016821F006010160FFF7B6
:103BD00015FF2046FDF7A0FEBDE810404FF4802001
:103BE000FEF746B80348FEF7C5BD0000FD6301209F
:103BF000FC6301200400002010ED00E00A481821B9
:103C00000068B0FBF1F0B0F1807F0CD200020749F0
:103C1000000A401E4860F02081F8130D00208860E3
:103C2000072008607047FEE79C0B002010E000E0D2
:103C300070477047704770477047704710B5084924
:103C400079441C31074C7C441A34A14206D0081D2B
:103C50000A68511888470146A142F8D110BD00BF3B
:103C600008000000380000002BF3FFFF00FA0000FE
:103C7000000000100C580100F40B002000000000B0
:103C800079FEFFFF0200000002000000F4010000C6
:103C9000C701000000000020F40B00004EF6885120
:103CA000CEF20001086840F4700008604FF0007028
:103CB000E1EE100A7047000000F009F8002801D07A
:103CC000FFF7BCFF0020FFF741FD00F002F80120E4
:103CD000704700F001B800000746384600F002F8CF
:103CE000FBE7000080B5C046C046024A110018201C
:103CF000ABBEFBE7260002000148804701480047B1
:103D0000FD390008093D0008C046C046FFF7C6FF60
:103D1000FFF7D2FFFFF740BFFFF73FBFFFF73EBF00
:103D2000FFF73DBFFFF73CBFFFF73BBFFFF73ABFD1
:103D3000FFF739BFFFF738BFFFF7FEBFFFF7FEBF42
:103D4000FFF7FEBFFFF7FEBFFFF7FEBFFFF7FEBFA7
:103D5000FFF72EBFFFF7FEBFFFF7FEBFFFF7FEBF67
:103D6000FFF7FEBFFFF7FEBFFFF7FEBFFFF7FEBF87
:103D7000FFF7FEBFFFF7FEBFFFF7FEBFFFF7FEBF77
:103D8000FEF7FBBFFFF7FEBFFFF7FEBFFFF7FEBF6B
:103D9000FFF7FEBFFFF7FEBFFFF7FEBFFFF7FEBF57
:103DA000FFF7FEBFFFF7FEBFFFF7FEBFFFF7FEBF47
:103DB000FFF7FEBFFFF7FEBFFFF7FEBFFFF7FEBF37
:103DC000FFF7FEBFFFF7FEBFFFF7FEBFFFF7FEBF27
:103DD000FFF7FEBFFFF7FEBFFFF7FEBFFFF7FEBF17
:103DE000FFF7ECBEFFF7FEBFFFF7FEBFFFF7FEBF1A
:103DF000FFF7FEBFFFF7FEBFFFF7FEBFFFF7FEBFF7
:103E0000FFF7FEBFFFF7FEBFFFF7FEBFFFF7FEBFE6
:103E1000FFF7FEBFFFF7FEBFFFF738B8FFF7FEBFA3
:103E2000FFF7FEBFFFF7FEBFFFF7FEBFFFF7FEBFC6
:103E3000FFF7FEBFFFF7FEBFFFF7FEBFFFF7FEBFB6
:103E4000FFF7FEBFFFF7CEBEFFF7FEBFFFF7FEBFD7
:103E5000FFF7FEBFFFF7FEBFFFF7FEBFFFF7FEBF96
:103E6000FFF7FEBFFFF7FEBFFFF7FEBFFFF7FEBF86
:103E7000FFF7FEBFFFF7FEBFFFF7FEBFFFF7FEBF76
:103E800001000181008100810081008100810081A9
:103E9000008100810081008100810081008100811A
:103EA00000810081008100F5000410007D00108178
:103EB000008100EE000002FD0002FFFF01F100049E
:103EC000010190D003F50001204EEE0004010190A5
:103ED000D003F50001204EF0001209029F000201FC
:103EE000008032080B00020E0300020904FD0016D8
:103EF0000E0100020D240100012700808D5B0001EE
:103F000001112402010102F8002502000009240326
:103F100002010100010009040100000E0200000E70
:103F2000240101450081000200010001000B24066C
:103F3000FC01FC000726240501024001F0FD0015EC
:103F4000EE020000EE02204E000090D00300009030
:103F5000D0030090D003FB000706240D01010409E3
:103F600004FD012F0E02000007058101020301007C
:103F70007D250008F12500082D25000811270008DF
:103F8000A5260008F1260008D326000851270008BE
:103F900063270008F8000B493300085F3300086FFF
:103FA000330008FC000F673400086D3400088735C3
:103FB00000088B350008F8003FB7350008DD3800F1
:103FC00008E538000809390008ED3800081D3900F7
:103FD00008393900084D390008FD3B0008313C0024
:103FE00008333C0008393C00083B3C0008353C00E5
:103FF00008373C0008007A030AF80019010203049C
:104000000607080912010002EF02012051C206173B
:10401000000201020301FD000E0C0240000C0240F0
:10402000000C0240000C0240FC001B0102030401D2
:1040300002030406070809F40B0020000002400CEC
:084040000B0020040309040039
:0400000508003D09A9
:00000001FF
