:020000040800F2
:10000000F03C0120CD7001086D6F01086F6F010891
:10001000716F0108736F0108756F0108000000001F
:10002000000000000000000000000000776F0108E1
:10003000796F0108000000007B6F01087D6F0108E7
:100040000D7101081171010815710108197101087C
:100050001D71010821710108856F010829710108CE
:100060002D710108317101083571010839710108DC
:100070003D7101084171010845710108497101088C
:100080004D7101085171010855710108597101083C
:100090005D710108617101086571010869710108EC
:1000A0006D7101087171010875710108797101089C
:1000B0007D7101088171010885710108897101084C
:1000C0008D710108917101089571010899710108FC
:1000D0009D710108A1710108A5710108A9710108AC
:1000E000AD710108B1710108916F0108B971010882
:1000F000BD710108C1710108C5710108C97101080C
:10010000CD710108D1710108D5710108D9710108BB
:10011000DD710108E1710108E5710108E97101086B
:10012000ED710108F1710108F5710108F97101081B
:10013000FD710108017201080572010809720108C8
:100140000D7201081172010815720108B96F0108DA
:100150001D72010821720108257201082972010827
:100160002D720108317201083572010839720108D7
:100170003D72010841720108457201084972010887
:100180004D720108517201082DE9F041FF2201F87A
:10019000012BD82301F8013B01F8012BDB2201F8E8
:1001A000012B002201F8012B432201F8012B002230
:1001B00001F8012BDFF8182F0FF2840314464025B5
:1001C0000FF2BC060FF2381893F800E01EF808C0D2
:1001D000BCFBF0FCBCF1020F38BF4FF0020C02EB8D
:1001E0008E0707F20837A76036F81E705B1C6D1E7D
:1001F0000CFB07FE4FEADE2727604FEA5E0707F198
:100200000067B7FBFEFEC4F804E001F801CB04F27E
:100210000C04D9D10FF228105FF0530310F8014BF2
:100220005B1E01F8014B10F8014B01F8014B10F86F
:10023000014B01F8014BF1D1C2F80814BDE8F0817F
:10024000000108100902030A11182019120B0405F5
:100250000C131A21283029221B140D06070E151C19
:10026000232A313839322B241D160F171E252C3323
:100270003A3B342D261F272E353C3D362F373E3F47
:100280000040C5589F53424B00404932A322A81159
:10029000C558217BFC736268C558BF450B307E187A
:1002A0009F53FC73416D54629F53B341412D12170C
:1002B000424B626854627E58424B213BBA28C314B9
:1002C0000040C5589F53424B00404932A322A81119
:1002D0004932BF45B341213B49328227371BE00DEC
:1002E000A3220B30412DBA28A322371BBF128E093F
:1002F000A8117E181217C314A811E00D8E09DF048F
:10030000100B0A101828333D0C0C0E131A3A3C3708
:100310000E0D1018283945380E11161D3357503E52
:1003200012162538446D674D182337405168715CAB
:1003300031404E5767797865485C5F6270646763E7
:10034000FFC000110800F00140030122000211006B
:10035000031100FFC4001F0000010501010101019C
:100360000100000000000000000102030405060770
:1003700008090A0BFFC400B51000020103030204C0
:1003800003050504040000017D01020300041105BA
:10039000122131410613516107227114328191A15A
:1003A000082342B1C11552D1F02433627282090A86
:1003B000161718191A25262728292A3435363738CA
:1003C000393A434445464748494A53545556575885
:1003D000595A636465666768696A73747576777875
:1003E000797A838485868788898A9293949596976B
:1003F00098999AA2A3A4A5A6A7A8A9AAB2B3B4B58E
:10040000B6B7B8B9BAC2C3C4C5C6C7C8C9CAD2D3B9
:10041000D4D5D6D7D8D9DAE1E2E3E4E5E6E7E8E9EE
:10042000EAF1F2F3F4F5F6F7F8F9FAFFDA000C0363
:10043000010002000300003F00000000DFF8902CE4
:10044000D2F81034D2F80814202B35D2D2F80C345C
:100450001B0E01F8013BFF2B04BF002301F8013BF9
:10046000D2F81034182B27D2D2F80C341B0C01F818
:10047000013BDBB2FF2B04BF002301F8013BD2F8A4
:100480001034102B18D2D2F80C341B0A01F8013B9F
:10049000DBB2FF2B04BF002301F8013BD2F810347C
:1004A000082B09D2D2F80C2401F8012BD2B2FF2A72
:1004B00004BF002201F8012BFF2201F8012BD922F1
:1004C00001F8012B081A70472DE9F04F08220B782C
:1004D000CC7991F805E091F804801D19A5F5807696
:1004E0001B1B4C788D796719641B8D78A7F5807775
:1004F00005EB0E0CA5EB0E0591F803E0ACF5807C46
:1005000001F240110EEB0809A9F5807A0AEB060901
:10051000A6EB0A060CEB070AA7EB0C07F7194FF03E
:10052000B50C0AEB090B1CFB07F7C0F800B0A9EBF0
:100530000A09C0F8109006EB272CC0F808C0B6EBEB
:1005400027268661AEEB0806AF191E19A7EB060C2D
:100550004FF0620E64191EFB0CFCB5254FF08B0E9C
:1005600015FB04F41EFB07F74FEA2C2C13EB242594
:100570000CEB27274FF4A77EB3EB24231EFB06F6D4
:10058000FC184461DB1B0CEB2626C3607319436027
:10059000AB1BC3612030521E99D1BDE8F08F000023
:1005A0002DE9F04F082162225FF0B503D0F8E0405A
:1005B0000568066A67192C1BD0F8C050D0F8408037
:1005C00005EB060C751BD0F8A060D0F8809006EB08
:1005D000080ED0F860A0A8EB060609EB0A08AAEB03
:1005E000090908EB070AA7EB08070EEB0C08ACEBB0
:1005F0000E0CBC4403FB0CFC08EB0A0BC0F800B06B
:10060000AAEB0808C0F8808007EB2C2EC0F840E069
:10061000A7EB2C27C0F8C070671906EB090CAD19C1
:10062000ACEB070E5D4302FB0EFE4FF08B0808FBA0
:100630000CFC4FEA2E2E4FF4A77814EB25260EEB78
:100640002C2C08FB07F7B4EB25240CEB0405C0F8B1
:10065000A050A4EB0C040EEB27270466BC1904621F
:10066000F41BC0F8E040001D491E9FD1BDE8F08F8B
:100670002DE9F04F0546104653F8042B53F8046B50
:1006800053F8047B0C46D7F800B00999BBF1000F72
:100690000BD5CBF1000B0BEB5207BA423ABF06FB6E
:1006A00007F2120C0022524207E00BEB5207BA424B
:1006B0003ABF06FB07F2120C002241B9DFF8101A0C
:1006C000D1F81464C1F81424A2EB060A00E09246A3
:1006D000BAF1000F54BF5246CAF100020FF2443182
:1006E000FF2A91BF12F801B0120A525C02F1080B06
:1006F0000FF2304202EB8B0672883688A71B012F5F
:10070000A4BFBA402A4329DA7C4222FA04F63543D0
:100710002E0E00F8016BF6B2FF2E04BF002600F883
:10072000016B2E0C00F8016BF6B2FF2E04BF002601
:1007300000F8016B2E0A00F8016BF6B2FF2E04BF21
:10074000002600F8016B00F8015BEDB2FF2D04BF3D
:10075000002500F8015BC4F12007BA401FFA8BF4B2
:10076000002C3CD0BAF1000F07D5012505FA0BF596
:10077000AAF101046D1E05EA040AA7EB0B07012F7D
:10078000A4BF0AFA07F4224329DA7C424AFA04F5A4
:100790002A43150E00F8015BFF2D04BF002500F869
:1007A000015B150C00F8015BEDB2FF2D04BF0025C5
:1007B00000F8015B150A00F8015BEDB2FF2D04BFE4
:1007C000002500F8015B00F8012BD2B2FF2A04BF1C
:1007D000002200F8012BC4F120070AFA07F20024D6
:1007E0005FF03F050FF26C3A40F2F97B4FF0010CDD
:1007F00053F8048B53F8049B53F8046BD6F800E0CD
:10080000BEF1000F0CD5CEF1000E0EEB580EF045E8
:1008100012D209FB0EF64FEA1648C8F1000E08E0A6
:100820000EEB580EF04507D209FB0EF64FEA1648BC
:10083000C646B8F1000F35D1641C6D1ED8D13F1FDC
:100840000A21012FA4BFB9400A4380F2E3807B4212
:1008500041FA03F42243140E00F8014BFF2C04BFAD
:10086000002400F8014B140C00F8014BE4B2FF2CFB
:1008700004BF002400F8014B140A00F8014BE4B255
:10088000FF2C04BF002400F8014B00F8012BD2B26A
:10089000FF2A04BF002200F8012BC3F1200701FA50
:1008A00007F2B7E04FF48076B04523BF4FEA182631
:1008B000765C06F1080818F80180102C40D208EB8D
:1008C00004160AEB8609B9F80260B9F80090002412
:1008D000A7EB0909B9F1010F39DB06FA09F616434E
:1008E0005DE000BFC7F100094BFA09F63243160E6E
:1008F00000F8016BFF2E04BF002600F8016B160CF8
:1009000000F8016BF6B2FF2E04BF002600F8016B61
:10091000160A00F8016BF6B2FF2E04BF002600F89D
:10092000016B00F8012BD2B2FF2A04BF002200F8AD
:10093000012BC9F120070BFA07F2103C102CBED393
:100940000B3F012FCEDB0BFA07F63243F5E7C9F177
:10095000000926FA09F73A43170E00F8017BFFB2A7
:10096000FF2F08BF00F8014B170C00F8017BFFB206
:10097000FF2F08BF00F8014B170A00F8017BFFB2F8
:10098000FF2F08BF00F8014B00F8012BD2B2FF2A5D
:1009900008BF00F8014BC9F1200906FA09F6BEF1BB
:1009A000000F06D50CFA08F7AEF101027F1E07EA28
:1009B000020EA9EB0807012FA4BF0EFA07F232437B
:1009C00025DA7A424EFA02F73E43370E00F8017BF1
:1009D000FF2F08BF00F8014B370C00F8017BFFB276
:1009E000FF2F08BF00F8014B370A00F8017BFFB268
:1009F000FF2F08BF00F8014B00F8016BF6B2FF2E85
:100A000008BF00F8014BC2F120070EFA07F26D1E75
:100A10007FF4EEAEDFF8B816C1F80C24C1F81074FC
:100A2000BDE8F08F00010202030303030404040481
:100A3000040404040505050505050505050505056A
:100A4000050505050606060606060606060606064A
:100A50000606060606060606060606060606060636
:100A6000060606060707070707070707070707071A
:100A70000707070707070707070707070707070706
:100A800007070707070707070707070707070707F6
:100A900007070707070707070707070707070707E6
:100AA00007070707080808080808080808080808CA
:100AB00008080808080808080808080808080808B6
:100AC00008080808080808080808080808080808A6
:100AD0000808080808080808080808080808080896
:100AE0000808080808080808080808080808080886
:100AF0000808080808080808080808080808080876
:100B00000808080808080808080808080808080865
:100B10000808080808080808080808080808080855
:100B20000808080802000000030002000300030098
:100B300003000400030005000300060004000E008B
:100B400005001E0006003E0007007E000800FE00B3
:100B50000900FE0104000A0002000000020001007A
:100B60000300040004000B0005001A0007007800D1
:100B70000800F8000A00F603100082FF100083FF4F
:100B80000000000000000000000000000000000065
:100B9000000000000000000004000C0005001B0025
:100BA000070079000900F6010B00F607100084FF2A
:100BB000100085FF100086FF100087FF100088FFDF
:100BC0000000000000000000000000000000000025
:100BD000000000000000000005001C000800F900F3
:100BE0000A00F7030C00F40F100089FF10008AFFC1
:100BF00010008BFF10008CFF10008DFF10008EFF87
:100C000000000000000000000000000000000000E4
:100C1000000000000000000006003A000900F70193
:100C20000C00F50F10008FFF100090FF100091FFD7
:100C3000100092FF100093FF100094FF100095FF2A
:100C400000000000000000000000000000000000A4
:100C5000000000000000000006003B000A00F8034E
:100C6000100096FF100097FF100098FF100099FFEA
:100C700010009AFF10009BFF10009CFF10009DFFCA
:100C80000000000000000000000000000000000064
:100C9000000000000000000007007A000B00F707CA
:100CA00010009EFF10009FFF1000A0FF1000A1FF8A
:100CB0001000A2FF1000A3FF1000A4FF1000A5FF6A
:100CC0000000000000000000000000000000000024
:100CD000000000000000000007007B000C00F60F81
:100CE0001000A6FF1000A7FF1000A8FF1000A9FF2A
:100CF0001000AAFF1000ABFF1000ACFF1000ADFF0A
:100D000000000000000000000000000000000000E3
:100D100000000000000000000800FA000C00F70FBF
:100D20001000AEFF1000AFFF1000B0FF1000B1FFC9
:100D30001000B2FF1000B3FF1000B4FF1000B5FFA9
:100D400000000000000000000000000000000000A3
:100D500000000000000000000900F8010F00C07F43
:100D60001000B6FF1000B7FF1000B8FF1000B9FF69
:100D70001000BAFF1000BBFF1000BCFF1000BDFF49
:100D80000000000000000000000000000000000063
:100D900000000000000000000900F9011000BEFF83
:100DA0001000BFFF1000C0FF1000C1FF1000C2FF05
:100DB0001000C3FF1000C4FF1000C5FF1000C6FFE5
:100DC0000000000000000000000000000000000023
:100DD00000000000000000000900FA011000C7FF39
:100DE0001000C8FF1000C9FF1000CAFF1000CBFFA1
:100DF0001000CCFF1000CDFF1000CEFF1000CFFF81
:100E000000000000000000000000000000000000E2
:100E100000000000000000000A00F9031000D0FFED
:100E20001000D1FF1000D2FF1000D3FF1000D4FF3C
:100E30001000D5FF1000D6FF1000D7FF1000D8FF1C
:100E400000000000000000000000000000000000A2
:100E500000000000000000000A00FA031000D9FFA3
:100E60001000DAFF1000DBFF1000DCFF1000DDFFD8
:100E70001000DEFF1000DFFF1000E0FF1000E1FFB8
:100E80000000000000000000000000000000000062
:100E900000000000000000000B00F8071000E2FF57
:100EA0001000E3FF1000E4FF1000E5FF1000E6FF74
:100EB0001000E7FF1000E8FF1000E9FF1000EAFF54
:100EC0000000000000000000000000000000000022
:100ED00000000000000000001000EBFF1000ECFF1D
:100EE0001000EDFF1000EEFF1000EFFF1000F0FF0C
:100EF0001000F1FF1000F2FF1000F3FF1000F4FFEC
:100F000000000000000000000000000000000000E1
:100F1000000000000B00F9071000F5FF1000F6FFBD
:100F20001000F7FF1000F8FF1000F9FF1000FAFFA3
:100F30001000FBFF1000FCFF1000FDFF1000FEFF83
:100F400000000000000000000000000000000000A1
:100F50000000000030B55E4C054681B0294604F221
:100F60000830FFF7B1FA04F20830FFF719FB002050
:100F700000902346D4F80824D4F81014D4F80C04B4
:100F8000FFF776FBC4F8080405F1080104F2083005
:100F9000FFF79AFA04F20830FFF702FB00200090F6
:100FA0002346D4F80824D4F81014D4F80C04FFF71E
:100FB0005FFBC4F8080405F5206104F20830FFF770
:100FC00083FA04F20830FFF7EBFA00200090234682
:100FD000D4F80824D4F81014D4F80C04FFF748FB14
:100FE000C4F8080405F6082104F20830FFF76CFA8B
:100FF00004F20830FFF7D4FA002000902346D4F81A
:101000000824D4F81014D4F80C04FFF731FBC4F80A
:10101000080404F2083008215FF0000240F8042BB5
:1010200000BF40F8042B00BF40F8042B00BF40F87D
:10103000042B00BF40F8042B00BF40F8042B00BF76
:1010400040F8042B00BF40F8042B00BF491EE5D137
:10105000012000902346D4F80824D4F81014D4F8C2
:101060000C04FFF705FB0121C4F8080400910246B7
:101070002346D4F81014D4F80C04FFF7F9FAC4F896
:10108000080401B030BDF0B5114C81B0D4F80013A4
:101090000320FFF779F80020C4F81404C4F80C0406
:1010A0002020C4F810040FF28A450F261427284682
:1010B000FFF750FF10357F1EF9D105F59655761EC6
:1010C000F4D1D4F8000301B0BDE8F040FFF7B6B9A1
:1010D00014060020074A0848D2F8003300F5FA4108
:1010E00083420EBF0B4603460846C2F80403C2F80B
:1010F000003370471406002000000010424D3630C7
:10110000010000000000360400002800000040013B
:101110000000F000000001000800000000000000D6
:101120000000C30E0000C30E00000000000000001D
:1011300000000000000001010100020202000303A0
:101140000300040404000505050006060600070761
:10115000070008080800090909000A0A0A000B0B21
:101160000B000C0C0C000D0D0D000E0E0E000F0FE1
:101170000F001010100011111100121212001313A1
:101180001300141414001515150016161600171761
:10119000170018181800191919001A1A1A001B1B21
:1011A0001B001C1C1C001D1D1D001E1E1E001F1FE1
:1011B0001F002020200021212100222222002323A1
:1011C0002300242424002525250026262600272761
:1011D000270028282800292929002A2A2A002B2B21
:1011E0002B002C2C2C002D2D2D002E2E2E002F2FE1
:1011F0002F003030300031313100323232003333A1
:101200003300343434003535350036363600373760
:10121000370038383800393939003A3A3A003B3B20
:101220003B003C3C3C003D3D3D003E3E3E003F3FE0
:101230003F004040400041414100424242004343A0
:101240004300444444004545450046464600474760
:10125000470048484800494949004A4A4A004B4B20
:101260004B004C4C4C004D4D4D004E4E4E004F4FE0
:101270004F005050500051515100525252005353A0
:101280005300545454005555550056565600575760
:10129000570058585800595959005A5A5A005B5B20
:1012A0005B005C5C5C005D5D5D005E5E5E005F5FE0
:1012B0005F006060600061616100626262006363A0
:1012C0006300646464006565650066666600676760
:1012D000670068686800696969006A6A6A006B6B20
:1012E0006B006C6C6C006D6D6D006E6E6E006F6FE0
:1012F0006F007070700071717100727272007373A0
:10130000730074747400757575007676760077775F
:10131000770078787800797979007A7A7A007B7B1F
:101320007B007C7C7C007D7D7D007E7E7E007F7FDF
:101330007F0080808000818181008282820083839F
:10134000830084848400858585008686860087875F
:10135000870088888800898989008A8A8A008B8B1F
:101360008B008C8C8C008D8D8D008E8E8E008F8FDF
:101370008F0090909000919191009292920093939F
:10138000930094949400959595009696960097975F
:10139000970098989800999999009A9A9A009B9B1F
:1013A0009B009C9C9C009D9D9D009E9E9E009F9FDF
:1013B0009F00A0A0A000A1A1A100A2A2A200A3A39F
:1013C000A300A4A4A400A5A5A500A6A6A600A7A75F
:1013D000A700A8A8A800A9A9A900AAAAAA00ABAB1F
:1013E000AB00ACACAC00ADADAD00AEAEAE00AFAFDF
:1013F000AF00B0B0B000B1B1B100B2B2B200B3B39F
:10140000B300B4B4B400B5B5B500B6B6B600B7B75E
:10141000B700B8B8B800B9B9B900BABABA00BBBB1E
:10142000BB00BCBCBC00BDBDBD00BEBEBE00BFBFDE
:10143000BF00C0C0C000C1C1C100C2C2C200C3C39E
:10144000C300C4C4C400C5C5C500C6C6C600C7C75E
:10145000C700C8C8C800C9C9C900CACACA00CBCB1E
:10146000CB00CCCCCC00CDCDCD00CECECE00CFCFDE
:10147000CF00D0D0D000D1D1D100D2D2D200D3D39E
:10148000D300D4D4D400D5D5D500D6D6D600D7D75E
:10149000D700D8D8D800D9D9D900DADADA00DBDB1E
:1014A000DB00DCDCDC00DDDDDD00DEDEDE00DFDFDE
:1014B000DF00E0E0E000E1E1E100E2E2E200E3E39E
:1014C000E300E4E4E400E5E5E500E6E6E600E7E75E
:1014D000E700E8E8E800E9E9E900EAEAEA00EBEB1E
:1014E000EB00ECECEC00EDEDED00EEEEEE00EFEFDE
:1014F000EF00F0F0F000F1F1F100F2F2F200F3F39E
:10150000F300F4F4F400F5F5F500F6F6F600F7F75D
:10151000F700F8F8F800F9F9F900FAFAFA00FBFB1D
:10152000FB00FCFCFC00FDFDFD00FEFEFE00FFFFDD
:10153000FF000B0911232D352F2319120F0C0A0A56
:101540000A0B0920402B0B070707083657442B15B9
:101550000A0E2F6456373E3E383134404C3C24222C
:10156000252826221F1E1D1D1B1B1F1E160F111EA8
:101570002E3224110B0738592D2E33260D0E11193A
:10158000255762312632362E2E4D4E3F3F3D38359F
:101590003A674E2E32302923212221211E1D6B4F06
:1015A0002326292216181531572D3B576665656489
:1015B00065646264636262626261605F5F5E5D5C1B
:1015C0005C5A5B5A5858595B5A58586780876C4A1E
:1015D000342D2C2B252221201E1D1F2617151311FB
:1015E0000E0B080909102E6E78312D322D1C211E8C
:1015F0001F232F2D2F32372C7557232524252C2ED2
:10160000182134361D0E0F15272323232A24192BC6
:1016100032352F2731271109080A0D1313100F0F28
:101620000E0D0E0E0E0D0E076377342F2D351F0095
:10163000625525272E230C0F0C06050428361F188B
:1016400016111216181A1B1C35423728262218218B
:10165000393E2F2B2F32302B282B343324251913CE
:10166000274B5B4B383017080C8A643028272D260F
:10167000080F0E0A11222C38312318100D0C0A09FC
:10168000090B0B13251D0C0807080B3858432916A6
:101690000B0B2E6454373C3A332E3242402C1A1B2B
:1016A0001F2324211D1C21221D1B1A16120B080AA0
:1016B0001117130C0A0947502D30341E0C0D161F3C
:1016C0002B5E602F273337363A3C43414142433D3E
:1016D000496B44303432271D181B2027272B7341B8
:1016E00024272A2520221E494E3E646764646464D0
:1016F0006363626261626262636361606161605ED2
:101700005C5B5C5E5E5F61605C60749AB19D6E461E
:1017100038342C2522202020201D33291314120CAC
:10172000090809090A1231766C2D2E332D22221D4B
:101730001F27302E313033357D49232325242C2A91
:101740001620302E19111015252324242C241B2C8F
:1017500032362D293323100A090B0F121110110FE5
:101760000F0F0F0F0D0D0D107269312F2D38180945
:1017700071482627311C0A130D060503143721185A
:1017800015131317191B1E273D524E3225231A23FA
:101790003D41302C2F33332B292C352412181715AB
:1017A00018272E242A311B021C96522D272630245E
:1017B0000B0F14181D2631383025180F0D0B090991
:1017C0000A0B0C0E14110B0908080B39564228138A
:1017D0000A062E645137352E2926303E2F1C13154C
:1017E0001B2223222A4151422C1F1A150E09090AD5
:1017F0000B0E0F0B070D57462D3134190C101C27FB
:1018000035695C2B282D2E333B424646413E403EF7
:1018100055693D313A3D33261D1B1F26243C743447
:1018200025272C342C242455596366636363626234
:10183000636262626364636464646564646464656F
:101840006564666B6E6C666364686E7885887053D9
:101850004D382821232120211C2D7E7D441F0E0A76
:1018600009090A0A0B12387F5F2C2D343027221EFB
:101870001F29312F322C2B497D3324242524332654
:10188000131D272516120F17262323242F231C2E62
:1018900032362B2B331C0D0B0C0E111110101010A7
:1018A00010100E0F0E0E0E1978582E2E2E350E1506
:1018B000783D272732150F1811070505072C251627
:1018C000151213161A1D221E2B4D5A502B201822AA
:1018D0003B412F2B3034322A292C361B0A14181680
:1018E0001516191C29341D0035923C272626341E56
:1018F00012111C252C2F34352F23180F0C0B09091E
:101900000A0B0C1013100D0A0A080C3C56402A2032
:1019100013062E6251382C22212134382214141C33
:10192000252F343B4C5E5B4B372318110C0C0D0CF0
:101930000F100F0B06175C3C2E3231140E16222CA2
:101940003D6D592A2A2B2528333D40413C3B3B3AEB
:101950005A6236324045383026211F251C4B752EE1
:10196000262830393A2C375E6664626262626161B1
:10197000616263636464656869696A6B6B6C6E6EEF
:1019800070727879746C676566646363656C778B75
:101990006F2E26212122221F244C636A6351330AB1
:1019A0000A0A0A0A0B123F85522B2E38322C221FAC
:1019B000212D3330312B295F792A24242627342204
:1019C00010161D1C14120D1827242424332A1B3032
:1019D00035332A2D30160D0E0F1113110F100F0F66
:1019E0000F0F0F0F0F100C297D4A2C2C3131062AB6
:1019F0007534292B3012141813090506041D2916F5
:101A0000171315191B22180F203A515A4D24151E71
:101A10003640302C3235322A2A2F35140911171747
:101A200016181C1E283726005A7A2C27262A341509
:101A30001313222D37363330291F16100C0A0909CB
:101A40000A0B0D1113120E0B0B090E3E5442413CB2
:101A50002A0E31634E372A1B191E34301718222CD8
:101A60002D3442495155534A351D130F0C0C0E0E9F
:101A700011110F0B042860342E352B10121D293143
:101A8000436F522A2D2C1E1E283339393029262720
:101A90005657323334352F2B231E1D1F17546628FB
:101AA000282A30312F426163626161616161626144
:101AB0006162646667686A6C6D6E71737677787F51
:101AC0008C9598948A7C716B67656461616270978C
:101AD0005D24232123201E22455650565757582B4C
:101AE000070C0A0A0B134989482D3036372F1E1E62
:101AF000212E33312F2E306E66262425262A341DC2
:101B00001112161815120D19272324223B371B34E6
:101B100038302B2F2E120F11111314101011100F1B
:101B20000F0F0E0E0F100D397F422D2B332C01405D
:101B30006E2C2A2C2C1015161109060605142716D2
:101B40001713151A211D0B101A293E474B37141B6A
:101B5000303E312C3339322A2B2F3310070E161911
:101B600017181B1C252C290662522627252D2E0D01
:101B70001314222E35322C27221B150F0C0A090AAA
:101B80000A0B0E1115130E0C0C0A1041524451474A
:101B90003D1D34644C382A1A191D2721151D232C8C
:101BA00033333D4041413E362117120D0A0C0C0FD4
:101BB0001212100C063C5C2E303523111A263133DC
:101BC00048754C252D2F2024292D2E2C221C161A29
:101BD000584C3132231D1B1B1B1C1C1C14645D251F
:101BE000282D291B356163615F5F5F606161616200
:101BF0006466696C6E70727476787A7E818C9CAD46
:101C0000B4AFACABAAA59787796F67636262696767
:101C10002F26232221211F40575252575B575753DB
:101C20001C090C0B0C14558A3F2D30373B2D1D1F02
:101C3000223332302A31377E53242523252D331A7F
:101C4000151417181611101E2524242348461B3876
:101C500032302B322C1010131516141010111010D6
:101C6000100F0F100F130E4E77372F2C3425004E08
:101C7000632B2A2F29111513100B0707081224179D
:101C80001614151C200D0A111D28262E2826151A9B
:101C9000313C332E35382F2A2A312F0B080B1319DC
:101CA00018181C1C1F211D154F3429262630260EFE
:101CB00016152330362F27231E19130F0D0B090974
:101CC0000A0A0D1313120F0D0E0B144552415350F7
:101CD0004B2A3B624A38291C18161614131D252955
:101CE0002A2B3234302925201B160F0B0A0A0A0E24
:101CF000121212100D4C502E32351D15222E383472
:101D00004F7648262E2F25292F312B2116110C1DF9
:101D10005D45322E171111101618191A1A6F4E261A
:101D20002A31231C56635D5F5F5E5E5E5F616365A3
:101D3000686B6F74777A7E8185878999ADBDC1BBE9
:101D4000B3ADADAFAFAEA7A39E907D696463694AA2
:101D50002523212225213F58545452565B5A575A65
:101D6000430F0C0B0C165E7E362E313B3C2B1E1F98
:101D700026343130303944813E2425262731311C28
:101D800019181A1A170F1523252326215F5C1C38F2
:101D9000292E2C35250D101618171310111210109E
:101DA0000F0F100F1015115E6C302F2C351C035EB9
:101DB00052292A3022131812110E09080B14251A61
:101DC00018151821140A0D121D2921120D0F121BAE
:101DD0002C3A3331383B2F2C2C352B08080A10199C
:101DE0001A191B1D1B19151C392B292726342715D9
:101DF0001A19242C2D2E2A27201813100D0B0A092E
:101E00000A0C0E131513100F0F0C1748533C4650B5
:101E10004C3847614736271914121212151B222617
:101E200023262B2825231F1B15110E0A09090A0F2B
:101E3000131315151B5D442F33331B1E2C343732FF
:101E4000507241272F302A2D33332B1F1410092CA9
:101E50005F3A3429131012171A191C1927794029CF
:101E60002B2D294D635F5E5E5D5D5D5E6062666A1F
:101E70006E74797C82878C9097A6B9C7CAC2BBB5AD
:101E8000B2B0AFB0B0A9A4A6A395816B6667653761
:101E900026232323213F5B57555554565B5D5C58E1
:101EA0005828080C0D186A76322F333D3C291E1F26
:101EB000273531333A4057803125252528312E1ECC
:101EC0001B1B1B1A170F1A262424261E70771B2B88
:101ED000242E2D35200C131D1B1510101110100F62
:101EE0000F100F101416186F5D2F2D2E36140B6F58
:101EF00049282A322017171212100D090C16251A1C
:101F000019171B1A0C0B0C111D29210F050C121B84
:101F10002A3533323A3B2F2C2C3627070809101963
:101F20001C1A1C1C1C1C1620362927272732291E88
:101F30001C231F2829272726221A13110E0B0A0AF1
:101F40000B0D0E1216141110100D1C4A52363A4B7E
:101F5000514A5C6543352314121414151A1E2023AC
:101F60002729292727241C15120F0E0C0A0A0C12E8
:101F7000131218182B64392F34301C273337342CA4
:101F8000516F3D2732322D3236342A1C13100B3B51
:101F90005B3634231012181A1C1C211A3577382886
:101FA0002A3B57645F5E5E5D5D5D5E6163666C717A
:101FB000787D84898F959EAEC0CBCDC9C3BCB8B4A3
:101FC000B3B2B0B0ADA7A89E87746B69676A542A94
:101FD0002520212246675550535456585C5E5D5A61
:101FE00059490E0A0E1D786D2E30343F3D281F21B1
:101FF0002C3630313D4269722D2524272B352D207A
:102000001D1E1C1F19131E272525272159854049F0
:102010001E2E2E341C0E1A20201511111011100F17
:10202000100F10131616247C502D2C2F310A197402
:102030003C2929321E1E1A121314100D0E18261DCB
:102040001C1A1E100B0C0C131D2720130B12181B2F
:10205000293631333B392E2C2D35240B0709111B22
:102060001F1B1B1C20231C29352826262B342C241F
:102070002432171C2020221F1B171210100E0D0CCB
:102080000D0D0F1415131211120E204C4F38374C32
:102090005A586A6742341E111518181A1E1F212536
:1020A00029292626241E17110F0E12140F0B0F13A9
:1020B0001310161638603331352D212F352F2B266E
:1020C000536B3829333230353833281B1210104CFB
:1020D0005434331E13171C1E2122241E4A742E3121
:1020E000556A6C686866646362616265686E757C77
:1020F00083899097A1B0C2CFD1CFCBC5BFB9B7B5B7
:10210000B4B3B2AEABA9987B6A6A6869676A4024C7
:10211000252324486F6B5952545656585C5D5E5DBA
:1021200059573D110B2483602D30363F3D27202227
:102130002E362D2A3E427561282525272C352B2247
:102140001F1C222621172027252525263F8583A60B
:10215000212F3033160D14201D1511111111100FE0
:10216000101114171B16347E442C2C332C052970A7
:10217000312B2D302025201514161410111C292167
:102180001D1E1C0F0C0D0D141E27221610171A19D8
:102190002D4138343E372D2D2D383017090B141EA4
:1021A000211C1A1B21291F2F322827252B332C25D0
:1021B000293D121415171A1B17100F1112110D0DAE
:1021C0000E0F101415131113130F234D4B3B3749EA
:1021D00059596B6540331E12191A1E1E1E202427E2
:1021E000282725251F1811100E142C2D1A0E101437
:1021F000120E141446572F33372D29302B24232445
:102200005A6A34283333333739342619120E1A58A0
:102210004933311B191D202426272A235A68386286
:102220006B66666768696A6A696766696E75838DD9
:1022300090949CAFC2CDD2D0CFCCC6C0BCB9B8B6FA
:10224000B4B3B1AFAB9272666969686767602D21FC
:102250002223476C69696157565756585E5F5F5F26
:102260005C575B4E112987542D3137413A26212383
:1022700030372A2A3B458150262626272F382B2502
:102280002020272F291C23272525252E23333AC13B
:102290004B28333311090E16171311121210101098
:1022A0001214191B1E134C7C372F2C3526013B6E44
:1022B0002D2C2F30252F271717181512151F2A27F9
:1022C0001D211E100D0D0F16202723191619151B81
:1022D000374A3E333F362E2C2D394329110E18250F
:1022E00028201B1B222922332F2928262C322A2280
:1022F0002A3E101113141821221E151012120E0E50
:102300000F10121617131112141127504A3C3D4892
:10231000494C6B6141331C11181D222020242728B1
:102320002725252019120F0F10334E4129121114A1
:1023300011101515524D303438292729211C1E241F
:1023400060663028343433373B35261915112A5E40
:102350003E342F1F202428292A2B2E286A645C68EB
:102360006061626567676768696A6A696C8CB4AA4C
:10237000A9B1B8C6CED0CECCC9C6C1BEBCBBBAB955
:10238000B8B8B4A7886C6568696767646850232427
:102390002143696768686558575756585E5E5E60A6
:1023A0005E5A5166493C8A482F323A4139252024E9
:1023B0003233272F3F4C833B2627282631362D26C4
:1023C0001E262E342C2229282525252F15030B56B1
:1023D0004D28352F0D08090F151111121112121267
:1023E000171C1F1E1E1663742F2F2C361F004D5FE7
:1023F0002B2E302E2C372C171817151417222A2E97
:1024000023251E110C0E11192227231B1815131E2C
:102410003C503F3440362D2D2E3A463E24111F337A
:1024200037251A1B202527382B2626263028221F41
:10243000213A120F0F101A25272A211613110F0EF9
:102440000F0F11191914101113102A50493F413E52
:10245000393E635D3F311A11171F2120222627269E
:1024600025252019130F0E0E2959614D2E11121218
:102470001215162261423135362122221C191C25E3
:10248000615E2D2A3434343B3D37291F1C183D5DD5
:1024900039362F242B2C2E312F2F2F31737062576A
:1024A0005353575B636765656766636D92BCCDCEBA
:1024B000C8C1C3C8CACBC9C8C5C1BFC2C3C0BCB7E5
:1024C000AFA38E756865656865656361663F2023A7
:1024D0003F6565646567675D565757595D5F605F27
:1024E0005E5C555762617E4031333D40372523277E
:1024F0003531243341597B302727282935372A1F86
:10250000222930342E2B2F2726262730140D0F1882
:10251000322E342B0B08091014131110121313163A
:102520001B2022211F1D78602C2D2C3718065B4B99
:102530002C2D312B313C2D191A1814131A26282F43
:102540002F271D110D0F161F252622191513121FD7
:102550004153423840342C2D2F3A3D3F3B1C2846F6
:1025600048281B1C1E2128382A28262732221C1CFA
:10257000233E1A130D0D142028251F1B13100F0FB7
:102580000F10121B1C16111013102D514740443A06
:102590002C35605A3D2D1A11171C2122242828257C
:1025A000242019120F0E0F1C496B6A5325111211AA
:1025B00014181831623730363221201D1C1B1C2B99
:1025C00064572B2B3433343B3F3B2E2520194B567D
:1025D0003536312D3132333332342E357558607201
:1025E000887E6F645B5D6565667995AAA9A1BBCF9E
:1025F000CDC6C4C6C7C6C2BEC1C2BCA8928D867CA9
:102600007166605F6162656462605F5F5F3321393C
:102610005F60616262656562575656595C5F615ED4
:10262000605D58535D605E3C30353F3F3425232A62
:10263000352B24393E696F29262626293A36231E52
:10264000252C3232303132252425272F130D0F222D
:10265000372F36270F0A0A11141110111313161AE7
:102660001E2121211F2F7E4C2C2E2F34120E623F53
:102670002D2C3227343D2A191C1914141B27292804
:1026800028241D100D121A22262520171313122399
:102690004454433C3F312C2C3238353C3D3233528C
:1026A00055281C1A1B1B2B3328282528311C1A1AC5
:1026B0002740211A0F0C0D111C201C1813100F0F8E
:1026C0001011121D1E1712101211325043404134C6
:1026D000233361583D332314181D2224272826252F
:1026E000211B140F0E0F162F596A664B201212135E
:1026F000181C1D3E5C3331373127262222211D3123
:102700006951292D3332353C3E3A2E281F1D554D37
:10271000333633323435363634312534796198CB1B
:10272000D8DBE0E1D2AD7F7F9FA186776E71737BAE
:10273000817E7A7C81828B9CB6C8C9C1A9868D872F
:10274000818F9393947D63605D5D5D5E592C375CF2
:102750005D5C5F5F5F6163655E5656585D5F5F5E9F
:10276000605F5C525C615F5234363F3D3426222DFF
:102770003225263E3E775B282528272C3D2D1D211E
:10278000272F2F30303532242323282D100E0F24ED
:10279000372F3931190D0A111412121112161B207C
:1027A000222020201E3A6C3A2E2C30320E18693628
:1027B0002C2D32233036241B1E1814151E282A25D2
:1027C000232319100E131E2525231E151211112760
:1027D0004753463F3F302E2D343E383C39394E5E0C
:1027E00057271C1C1B1930332828262C2E1A1D197C
:1027F0002A44291F140E0D0E0E12171614110F0F56
:102800001111131C1F1A120E12143751423A362C92
:102810001F3661543B3D341D1A1F232628262623CC
:102820001D150F0D0E111F3A555C55381E15131747
:102830001B1F1D49513033392F2C302723212038BD
:102840006B4A272E322F353D3B3A312D21295A41F3
:1028500035373032343738352F281A417C464F55BA
:10286000524C515C655A42453D277D90686B6A68C1
:102870006566696B6C6F789DBAC0D1D4B582786C8F
:102880006571809EA582615C5C5C5B5B5842565DB5
:102890005A5B5D5D5E606467665655575D5F5E5E60
:1028A0005F5F5C515D6A62614A353E3B3426252F8D
:1028B0003124293F3E7C4B262727263039232026EA
:1028C0002D2E2C2F3237322524242A2A100F0E29A0
:1028D00036303B372B120A1114131213151B212308
:1028E00022211E1F1B3B562F2D2D32320B29663005
:1028F0002B2D31212E31211C1D181416202B29249B
:10290000222019100E131D24231E1A131112132D29
:10291000485048423D302E2D34424345443D616D80
:1029200055221C1C1A1832322A28262F2C1C1C183F
:102930002F482F251A120F0E1113171715120F0FEC
:102940001213131C1F1B130F13183C5040322A2262
:102950001B3D634F3D4D45261C2125282625251F5F
:1029600018120E0D0F13273E45403B241918181C52
:102970001E2222564631363A282A312B2224203E66
:102980006A442730343132393A37302E233B5938B4
:10299000363330343838342C241F124E71313233F0
:1029A0002E211B201C1C25251C75AB907A706C6E8B
:1029B00070737374777B808A9AA3A39081798582E0
:1029C0006F645F5D5F5D5C5D5B5B5B5A5B5D5B5A2B
:1029D0005A5C5D5E5F6265666A5D54585B5C5E5E14
:1029E0005F5F5E5457726A625C433A3D332627311B
:1029F000352A2E3C4480412726262937301F28348B
:102A0000342B292D343B322424262B2A11100F2B52
:102A100034323D2F2A180A10151311131A1F2424BB
:102A200022211F1F1B39402F2D2A34340B3D632BCD
:102A30002E2F301F2E2F221C1D191518232B282452
:102A4000231E16100E11171C1C1A181413131732FC
:102A50004B4E494639302D2E383536444C5468712A
:102A600055231D1C1A1B372F282B27342C1D1C1AED
:102A7000374C30291F15110F13191A1A161210107E
:102A80001112141C25211612171B40533F2F221B15
:102A90001F47654B4756482E1F2528292726211AF0
:102AA000130F0F1012152C3A382A1E1D1D1E21223D
:102AB000221E275B3A3038331E2D312B222321472B
:102AC0006B3E2731352A283437322B29264D513594
:102AD0003736373735312B251D1B14616A32393CA7
:102AE0003528272B29292C2A6898827B7A777270BF
:102AF0006F7074787A8189969A8167626F85878B07
:102B00007D6E6C67635F5D5B5B5C5B5A5A595859BD
:102B10005A5D5F60606266666A6856585B5C5D5FBE
:102B200060605F59527172676057393B32252736B2
:102B30003A3234384F792F2729272B362921314033
:102B40003628252A353D322423242A25120F112F19
:102B50003433352320150A10151312171E2325248C
:102B6000221F201F1E3A352C2C2A36320B4F552A95
:102B70002D322C1E2F31231E1E18161A262C27220A
:102B8000211E1715110F10131416161515161D39C1
:102B90004D494848372E2E2E372221333E55747327
:102BA0004F241D1C1A20392B29282732281D1A21B1
:102BB0003E4E302D251A1413181B1C1C171312100F
:102BC000131414202E2B2016191D45533E2E201FA2
:102BD000295368484B4E3F3022272D2B2B261B159F
:102BE000100F0F1014182B3830231C292B272624E4
:102BF000211C35593332392C1D2B2D2622242450EB
:102C00006A3829332F20222C322C26272E5747337F
:102C1000383C38342E29231E1C1F20715F32383D6A
:102C2000322927282528254E8E7F79777471706F79
:102C30006E6E6F73757A808374656A6B6970727279
:102C4000726C6C6C6B6A6764605E5C5858595B5C54
:102C50005C5E5E6062636568686D60575C5C5D6069
:102C600060605F5C5067776A635E4C40312628394C
:102C70003F393B3669712B2729282D3522253543CD
:102C800035262128353E322323242A28140E1536D2
:102C9000333733191E160B101515141C2225252346
:102CA0002121211F213E352D2B2E382E115D4C2B3D
:102CB0002D3428202D2E241E1D18161B272D2722CB
:102CC0001F1B1A1E19100D0E10151717171621416C
:102CD0004D41484C352F2D30371B191F294062714B
:102CE00048251E1D1924372828262833251F1B2A6E
:102CF000474F312F241B17151B1C1E1C18141011B5
:102D0000141515252C27241B1E2448503B2C222645
:102D1000325D6A474241332724343C3B2D2218114F
:102D200010101213171B293328252C38362D262472
:102D3000221C46542F343A2921282924232626569A
:102D40006434293129191B2730302E30415A3F3540
:102D50003737312923211E1F1F232E7F52323A3E3F
:102D6000312C292625262D7689787473706E6E6D28
:102D70006D6D6C6C6C6A6867686A69696A696869B4
:102D80006B6C6C6D6C6C6D6E6D6C6B67625C595AC4
:102D90005A5A5C5E60636468676D6A5B5C5C5E5F28
:102DA0006161605E535B746E675E574A2F262A3CF2
:102DB000443F4136775F272727272F342228374281
:102DC00031241F25343D2D2325252C28160E173898
:102DD00033382D1922170C101316171E25262523FC
:102DE0002120211D273C332D2D30382A18683D2AFB
:102DF0002D3523222E30241E1B18161D2A2D262188
:102E00001F1A191D1D120D0D1014191A1A17254419
:102E10004B3A454B34302E31361D201F1529536651
:102E200045231F1C1A2C352828272B31211F1E3320
:102E30004C4C322E231B16171C1C1E1D191411116D
:102E40001316161F27232322272D4C4F3A30282BE9
:102E500037636645393126212E3F3E3C2C1E171222
:102E6000131313141C22272B242735413C2D252412
:102E7000221E4D4830363A24222627222426265C5C
:102E800060302B3020141D2D383D433F51543735D1
:102E90002D28211B1B20211F1D22387F46353B3F3B
:102EA0002E2F2B23262145897D72716F706E6D6DDB
:102EB0006D6D6C6D6C6C6C6B6A6A696A6A6B6A6A60
:102EC0006B6C6C6C6C6B6C6D6F71727474716B6627
:102ED000625F5D5C5C5D5E5F6466675D5B5D5E5FFF
:102EE0006061605F57526A6F6861595334252A3CAC
:102EF000474547367C4D262728283330222B383C3F
:102F00002D27222631392D2426252C28160D1A3955
:102F10003339291C261C0D0F161D1F23262525229B
:102F20002020211B2F3D2F2D2D3038262467302CBB
:102F30002D3522242E2E241E1D1818232F2D242338
:102F40002319161A19110E0D10151B1C1D192A48CC
:102F500046333E49342F2E35321F28271A224B6420
:102F6000421F1D1D192F332A292730311F1F203AD8
:102F70005248322E241C18181D1E1E1F1A1512111D
:102F80001416181B1D1C1F262F3851503B3A3A327D
:102F90003B6160423628222833403E36271D1818F0
:102FA0001616151723292D2B28323D42392B2523A0
:102FB00020255B413338392B2527252325232C63F6
:102FC0005A2D2D2E1C1423343C3B3D39584E36349B
:102FD000231A19181C2122211D1D417D42363C3E19
:102FE0002C32262225226089736F6F706F6D6D6D94
:102FF0006C6D6C6B6B6B6969696A6A69696B6A6B2A
:103000006B6B6B6B6B6B6C6E6F70707272727272DB
:103010006D6F6B6B6A676A7371728875585D5E60FD
:10302000606060605B515C6967635A5847272B3E5C
:103030004348463C7E3E27272729353424303B38F9
:10304000303029292C352C2525252E2A190C223FF4
:10305000343B25202E2311101D2A28272727252120
:103060002021201D363A2C2C2C313622385B292D7C
:103070002F3321282F2E251F1D181E2F372E2324D6
:10308000292113131312100E0F151B1D1C182E4A85
:10309000422A3A46342E2D3732222D221A285165E3
:1030A0003B1A1B1E1B342F2C282B332E201F25428E
:1030B0005240312F261F1A181C1D1E1F1B161213DB
:1030C000151A1D1B18151B28313E534B3C494B3A12
:1030D0003E625B3F31252834393D3C2C2220201EA6
:1030E0001916151B28303131303D4543362924212E
:1030F0001C2C583734393D382724242523223267A5
:10310000532B2F2B1B172934332D282C5344372FA7
:103110001A1618191F221F1E1F17497B3D373F3AE9
:1031200029312221222777816F6F72726F6D6D6E48
:103130006E6D6C6B6B6A696969696A69696A6A6AEA
:103140006B6B6A6B6B6C6C6D6F707072726F6F70A3
:10315000686D6E706F707F938FA0C08C565E5D5FE0
:103160006162615F5D52546164625C5755382D4302
:103170003D473D487F352629272E3A3228373C32B5
:103180002F342F2C252F2A2524262F2D1B0C314997
:10319000343D2223352C17142334332827282622A4
:1031A00020211F1F3A362B2C2D34351F4A51282D34
:1031B0003030232A302F26201E1A273D3F2D23256D
:1031C000272416111213100F10141A1D1817334E3E
:1031D0003D24323E322E2D36312B3226192B535FB1
:1031E0003616171E21382E29292B34291F1F2B4B49
:1031F000513730312B231B17191B1F1F1C1614149A
:10320000181F211E19181A28304256474256574295
:103210004464573D322C394242473B2A272B29230D
:103220001B17171E2B3334353943484032262220D2
:103230001A3D5532363A39342B23252428293A6A47
:103240004B282F2B1E1D2E34281A13274F3C352BAD
:103250001A16171C1E211D1A1A13546F353A4234C0
:1032600025251E20202C82796E70716F6D6E6D6D1C
:103270006D6C6C6B696868696869696869696A6AB4
:103280006A696A6B6A6C6B6D6F70707070706F6F6B
:103290006B6C6E6E6F74839190A5BC91575D5D5E93
:1032A000606261605E55515A5F605D58574B2F42B6
:1032B0003B45335970282829272C3830303C3A2B8D
:1032C0002C33322D222C29242526322E1E0E495233
:1032D000353A1D273832201A2A3834272626252247
:1032E00020201D223C352E2D2E363124583E292DEE
:1032F000312E262B3030281F1E1C3046422A211F1B
:10330000211D16101213100E0F161B1B1518385006
:1033100037202C38312E2E37322D2B29162A535C8C
:103320003112141A27392E2B2A2A33261F1E314E0A
:103330004E322F342F261E17171A1D1E1B17171655
:103340001D2526211F1F1E262D4159464C60624E09
:103350004A65553D36353D45484C402F2932322788
:103360001C19181E283136373844443B2F26242296
:103370001B4C4A31363C332C27252829322E496DE7
:103380004629302C22253435261911344D3835295B
:10339000201D1B1D1C1E1F2223206867333942314C
:1033A00027221A1C1E286E726D74757070706F6DF6
:1033B0006D6C6A6969686869686968696969696A78
:1033C0006A6868696B6B6B6D6E6F706E6E70706E35
:1033D0006D6D6E6F797B879395A9BA975A5C5C5E29
:1033E000606161605F5851555B5E5C5957553D4067
:1033F0003E4A346F5F272728282D38363D4338262C
:103400002935342E232B2926252834301F146654C1
:10341000363A1C2B3B352622303C372724242420E7
:10342000201F1A243D322F2E2E352F2E5A332C2CAE
:10343000352D292D3131291D1D2037483E281E19D3
:10344000191A17111112100E0E151A18121C3E50CF
:10345000311F2738312F2E372A29251F1028515B7D
:103460002E1112192B372A2D2B2D31201F1F364FCD
:10347000492E2D312E271E1916191A1E1D1E1B1915
:10348000232A2A272728242528405A454E62665A8F
:103490005165503D393B3D444E4B42372E35362821
:1034A0001B19191C262F3737343B39362C28292471
:1034B00022533F30383A25272C2C2B28312A4C6BAD
:1034C0003D2A322A222B3837241817414535352E0C
:1034D0002D2D211B23333A3D3D387A5C343B433A52
:1034E0003731242727255C7173827F797471706E60
:1034F0006E6B696A696968696968686868696A6A37
:1035000069686968686B6C6D6F6E6D6D6F706D6EFC
:103510006B6A6D758B7E8B969BAEB89D605C5B5DB8
:103520005F616161605A5253595B5C5957574C3E19
:103530004752407E4C2928292A313F4847493222A8
:103540002A36372F242C2825242735301D1D764D6B
:1035500039391B2E3C34262735413B282423201F94
:103560001E1C152A3F2F2D2C3136293B562B2C2D76
:10357000372C2E2F3232271C1B263F4A38241B168D
:10358000181B1B161314120F0F1218171022444B7E
:103590002A1E2838312F31391E1B170D0B27505882
:1035A0002A10132037342A292A2F31201E213D5278
:1035B000422D2A2F2E241C181617181F25252120CE
:1035C0002E2F333031312924273F5945475F65601D
:1035D0005A654B3D3A3841464C4A46393A3A3528C5
:1035E0001C1C1A1C242D3937313032332F302F2A2E
:1035F000315A38353B372A333830272328234E6653
:10360000372B31251F303B3623161E493F343331CB
:103610003B3D303C565D5E5A514E814E36404942EC
:103620003933363B3A345A738493897E7A79746E8F
:103630006D6C6B6B6A6968696866686768696A6AF5
:1036400069696968686A6C6C6E6E6E70716F6D70B6
:103650006E6A6F8A957D8D999FB1B2A2695E5C5B3F
:103660005F626161615D5452565859585757533ED5
:10367000505B527F3A2829282E364755544D2B212E
:1036800028383931262C26242529352F1A2A7C461C
:103690003C341A313A32232537443D2923221F1D59
:1036A0001918122F3E302E2E3636284B4B282D2F30
:1036B000373235353732261C1A2E46493322191631
:1036C0001A1E1E191516130F0F141A180F27494723
:1036D000261D293832303634150F0C080927515869
:1036E000271219293A322A2929322D201C24435124
:1036F0003A2C2B2C291F1A1819171921272C282D81
:103700003738373435362D23253E564239576460D5
:103710006161494038333E3E46474542474137297B
:103720001D1D1D222A323D362D2C32313032342FD0
:10373000415433363C38343E3F33231D1B1D556105
:10374000332B312520343E3621152B4938352D3188
:103750003F4659696E6B6A696061834637414A3EEC
:1037600033313B413736527A9CA1928787827570FC
:103770006F6D6D6B696969676667666768696A6AB4
:103780006A686767696A6A6C6D6E6C6E706F6E707E
:103790006F697A9E957D919DA8B5A8A173635E5AC5
:1037A0005E606061615E5652555759585857554191
:1037B000545D67752E2728272E35475C594A241FEC
:1037C00027383933282D2725252C352C17367F43CC
:1037D0003F2F1B33392E202131423D28211F1D1937
:1037E000161512393A2F2E2E36382B533B282E31F0
:1037F0003534393A3931241A1E354A482D1F1617E7
:10380000191D1F1C161616100E131B1814304D43CD
:10381000281F2E393030363013110C090928535621
:10382000261926343A2F2A292A352A1F1C294751BE
:1038300035292D2A251D191818181B1F2C31303B2E
:103840003B3E363238372E23244053412F4B5E5BAC
:103850006A60443C312B373B423D41484E493A284F
:103860001D1F22262A353F372F303433353335326A
:10387000514931373C3333414236201B18205A5AC4
:103880002F2E312724363D321D1735443533282E4F
:1038900045626E6F6E6E6A645A6A82403744483A77
:1038A0003635455042344489B2A9A29A958774713D
:1038B0006F6F6D6A6969686767686667686A6B6B6E
:1038C0006968686568696B6D6D6E6C6D6F6E6F7041
:1038D0006E6B8BA5947C858B9DAFA0A58866655D7E
:1038E0005A5F616162605953545657575656574450
:1038F000535976682A2A2A2A31313D5A5944201FC1
:10390000273A3B35282C2725252B352B1443793E88
:10391000432B1C34392A1C1A284647291F1C18150A
:103920001211193F382F2C2E3A3B34552E2C2D33A3
:103930003534353C3B31231B223F4D43291B1618A0
:103940001A1D1F211D1717130E151C1919384E406B
:103950002F243438312F382E13120E090A2D5353C9
:10396000282634393B2E2C282D39291D1B2F4C4C51
:1039700031282C28221A181816191B20282F3241FA
:103980004040322E35342F2323404E3C2F37535C9A
:103990006E6140332B2831373C373D42454739294A
:1039A0001F2123262E3A3D3934353A373732343603
:1039B0005A3E303A3A242B404237231D1B2762538C
:1039C0002C2F3125293A3C2D1A1B3C3C3330262F15
:1039D0005D7170706E696360597779373846493D1B
:1039E0003D4257635D494495C0B8B6A8A38A747434
:1039F00071716E6B6B6A6A6868676767686A6B6C1F
:103A00006A676866696A6B6D6C6E6D6E6F6E6F70FB
:103A10006D6C90A89478706F789A9D9F9870696388
:103A20005B5D616162615C55545657575756584EFD
:103A30004F4E7A5C272B2A29342A3455573B1A1DBE
:103A4000283C3E35282D2725252D34261252763B3D
:103A500042261D33372D1E162953552B19181412C3
:103A600013122142352F302E474F4250292D2E362A
:103A700032312F33362E231C28444E3B241817197D
:103A80001A1B2125221B181410141B161B3C4F3E19
:103A900031283938302F3A2812120E090C32585179
:103AA0002F363C3F3B2D2A292E35231C1B345046F4
:103AB0002D282A251F191A19191A1E23262D3346B7
:103AC000443C2C2A33353123274047383434425D77
:103AD000685C3F38322D2E31393331383D433A2B33
:103AE0002324242A323B3C3730353B3A37302F3DB4
:103AF0005938323D3318233C423925201A32674A5F
:103B00002B303227313C3B2717213E3733291E50BB
:103B100073717170686261625C8272363A474B43BE
:103B200045576970756D6597C5C5C4BAAF87767717
:103B300075726E6C6C6B6B69686868696B6B6D6DC8
:103B40006A6466696A6B6C6C6C6D6F716F6F6F6FB6
:103B50006C6C76867E6F6F6F7A97999A9E786B6998
:103B6000615B5E6061605C595556575758575751B5
:103B70004847814D2729292D35212B4C523C25249E
:103B80002D3A3B33292E2824262E3124135B6D3BFE
:103B900042231D2F393C2C1C345C5B281414111259
:103BA00015132741312E302C646B493F272D2E38B9
:103BB000313029282C27221E30484C322016191B60
:103BC0001B1C2223211D1917121518121C3F4E3CD5
:103BD00030263A373131392513130E0A1037594F31
:103BE0003A41403E382E2A2B30331F1A1E384F3FA1
:103BF0002B2628231D1A1A1A1C1C2225232A394574
:103C000040382A25323734282E4446383835335048
:103C100064563D3C342B29282C2B252F3A40393033
:103C200027282A2C2F3A3C2F2B363B3B352D2A4474
:103C3000523335412711213A413A29231D3F67422A
:103C40002A33352C3D3F372215263A333222417331
:103C50007272706964636365628764363B484E4C78
:103C60005B7378787F82809EC5CCCECBBB877A7C15
:103C70007873716F6D6C6B6B6A6968696B6C6D6F73
:103C80006863676A6B6B6B6C6D6E6F6F6F6E6F6F77
:103C90006C6D6D6D6D6E706F869794999E8B6F6E67
:103CA000685F5C6062625D5B575557575756584C6A
:103CB000414D803A2929282D382B2D383C3D3F3E57
:103CC000404238252A2F282627313021166B673DA0
:103CD000411E1D2D424C3E29425F552110111315E6
:103CE0001913304031302F3074724B31292B30385A
:103CF000332E272524201F20384D482A1A171C1E32
:103D00001E1D1E201D1A1B181414140E20444E359F
:103D100029233937313138211514100C163E5952E8
:103D20004443443C312F2B2B33311C1A223A493760
:103D30002A24251F1B19191C1C1F27252428353F41
:103D40003E3426222E363532384A46383634303B19
:103D5000594E3C3C3026231E1E2226323F43373329
:103D60002B2B2E2E313C352A2F3E413A3129284922
:103D70004832373D1D121E37413B2C252148643CFB
:103D80002C3539374443321F152633322F43717493
:103D900073726A6566676667688959363E4B5A630F
:103DA0007985827F8387869EBFCCD8DACF987A8048
:103DB0007877757371706F6D6C6B696A6C6E6F6E0E
:103DC0006865666B6E6E6C6D6C6E6F6F6F6F716D2C
:103DD0006D6C6F706F6E6D71939290989C9875700A
:103DE0006E675C5E62625F5D595557575656574421
:103DF0003651782F2B292A2F3937373733333B4425
:103E00004A57684B2C30272428332F1F1B77603EDE
:103E10003D1E202F4C605238455440171113161B7D
:103E20001D18393D33313138757645282A2B343900
:103E3000352D25211E1C1F243E4F3F2219171B2103
:103E4000221F1F1A15161A1A1513130E26484D3065
:103E5000212039352F34371E1A1814101D425B5596
:103E60004B545843312D292C372A1A1A2338413103
:103E70002823211E1D1C1B1D1E252D2D2C272C35F6
:103E8000372D252328323338404E443331302B39F7
:103E9000574A3A36281E19181A1D28394244373213
:103EA0002B30302F33382C2937464A392D252A50CC
:103EB0003E333D3916141D35403B2F2425536035C4
:103EC0002E3732384241311C1728302C437176731B
:103ED000746D676868696A6A728D4B373D54728089
:103EE000908A878485888A92B7C6CCD8E1D2A15AB5
:103EF00046797976757472716E6C6B6C6E70716EDA
:103F00006766676A6D7173736E6F6F6F7070716DD6
:103F10006C6D6F6F6F6F6C7C9F90909A9DA2847098
:103F2000706C615A60635F5E5C57585757575447CF
:103F300034606827292C2A2F39393B3D3F36333CE2
:103F4000475781A05F26282627352F1B227C553F07
:103F50003A1F252B4E6D66453D3E25101118202435
:103F60002529403B34323239747F35272D2D3732A5
:103F700038392B1C1D1C1F2A434D361D1716181CC3
:103F800021211E181112181A161312102D4D47292F
:103F90001D223C323036381F1D1C171423465C533B
:103FA0004D6367413030292B3527181A2233392FBA
:103FB000262420201F1E1F20243238352E24242A98
:103FC0002D2D2523212A303A454E402E2B2B283EDD
:103FD0005948382C1C18171C1F1E2D3F45433732DB
:103FE0002C32322C3335292939474C362A23324A90
:103FF0003434413116191E323D3D31252F5F5A3080
:104000002E3229313F3D2C181C30303B6D7B7676AB
:10401000706A6A6B6A6D706F7E8D433A3D638D9DE9
:104020009788898786898D8EABC5BDADC19A562884
:10403000266D7E79787777757371706F7070707197
:104040006D6B6C6E707374767271706F6F6D6D6D79
:104050006D6D6F706F6F6B88A993919999AE917028
:104060007370685B5E635F5E5F5A57575758524B79
:1040700035715827292E2B343C3A414446473A376C
:10408000435766916F24292629352E192D7F4E42DC
:1040900039272F28496D7149322716183040392E9B
:1040A00034444337313036377772272B2E31362858
:1040B000393F361B191B2032474B2D1B181613177F
:1040C00020231E171011171A19151012344F3F24F0
:1040D0001A263C323036341B1F1E1A18284C5E4DEF
:1040E0004D666F3C2F2B2A2F3524191A212F36317C
:1040F00029232427221D2329323B4042321D1A2125
:10410000282A23231E222F3844483B2C26292F4BB4
:104110005744342417161C2326232F3D453E37329F
:1041200030332E272F332924303F403125213D477E
:1041300032363F2A191A1E34434431263763502E33
:104140002F271E2C3B3B2716223038677D7778744B
:104150006C6C6C6E7073767687813C3B3E77AAAB55
:104160008F878888878A8C8B9EC0C2B5BB842F2F8F
:10417000234A827C7B7B79787673716F6F70756868
:104180004C44433B3935396D76706F6D6E706E6D92
:104190006E6D6E70706F6A91B0968F8FB4CAAB7A85
:1041A00073726F635B63615F615C58575857544A21
:1041B000367A47292A2E2D34414951534C4E4A3CD8
:1041C0003D537DA55D2629252B372E1837814B437E
:1041D0003B363D263F646B422319173A64776539B5
:1041E000404F3F35312F35427B52252C2C372C2622
:1041F0003C3B3018151B21384B45271B1F21191A32
:1042000023251E16121317191A1710173B513721A1
:10421000172B3C313039311E211E1D1E31515D439B
:104220004A646C37312D2A3137201A1A222F333243
:104230002A232F312E2B29313C434A49361E121F87
:10424000262A2321202131343B3C3229232A35548C
:10425000563D301F121622292D27323E433B353161
:104260002F2D2A2930342C1F273433292123423D76
:1042700032393D231A1D1F394B4B362A3F64472CD8
:104280003021182A3A3722182532617D7978766FE5
:104290006D6F717376797C7D9275393D408DBBA3CE
:1042A0008889898888898C8A93B8C1BDC1A55A310B
:1042B000252567857D7C7B7A7C7A757373776C3076
:1042C000181B20170C0A1768766E6D7277706E6E69
:1042D0006E6D6E70706E6A97AB8E8D90B9EBC899EB
:1042E0007075736D5D5E6260615F5A5958565540D6
:1042F00044813A292B2F313B53585B5C5250534C2D
:10430000424581D76E202A252A3A3115417C464301
:10431000404247232F4E55341918215281907C4337
:104320003F4B3D363432374E7437262A2B37222600
:1043300037332117161B233E4D3D221C242C343BC2
:10434000352B1E15121315191A18101B3F4F311D4E
:104350001B313A33333A2E1C1E1D202437555D3A4B
:10436000415F5D34322D2B34341C1A1C262F323120
:104370002A25353539322E373D474B412C1D111C2E
:10438000252A27202325303134322B261E293A595D
:10439000573A30201117262E312D3A414139343207
:1043A0002D29252B3A392F2121272A241F2A4A3546
:1043B000313D391F1B1B1E3E504F3A2B4A663E2C87
:1043C0002F1E1A2D3933201C29597D7B7878726C69
:1043D000707375787B7C8182946D383E499FB89468
:1043E0008889888887898C8B8EAEC0BBBEA4743ABE
:1043F000242132657F82817D706B716B645D3C1816
:10440000181C231A10101862786E737E756E6F6E0A
:104410006E6D6D6F706F6C89938E908F95EDECCB98
:1044200079747472665D636262625C5B5958513B79
:104430005E7634292A2E2F475F5D605F55535658AC
:1044400052476AC6622228252C3C331452784244D3
:104450004049461F1F343A26161925578D90714141
:1044600032443B3331313D545A2A292B2F341D28F5
:104470002E221817161928434C351F1D27364E5764
:1044800049341E151313161818161022444B2C20ED
:1044900025363832323A2B1B1E2025273A555936FD
:1044A00035574E312E2B2D35301B1C1F262F312C0E
:1044B0002823343B3E3331393E443E372416111A0B
:1044C00023262725242B2D2C2F2C28231A253D5D30
:1044D00051393121191F272A30333E434038332FB9
:1044E000292A2C3341392C20232525211D344A31FA
:1044F000353E33201C1A203D4F4B372F54643A2C45
:104500002F1D1C2D393121204A797B7978746D6FEC
:104510007376787C7F8285899B5E393D52AEAD8D06
:104520008988888888888B8C8DA5BDBABA9C805470
:104530002325252E4F625E4F3B393D383430302CD9
:104540002427333121161657776F79756E6F6F6F89
:104550006F6F6F7070716C85A199999384D4FAFB19
:10456000A06A77736E6364646565605B5A574F45F4
:1045700072662F292A2D2E52636063625957595C47
:104580005D5763AC502427252F3A31165B704145A7
:10459000414C421B131C251E1919295C878B63355E
:1045A00026443B3131313E4C4223292C352E202BE1
:1045B0002B1B1519191B2F49492D1D1A2638535B22
:1045C00050331B161517181815130E28494B2C2796
:1045D000303C3A32353A291E1E2226253B525431B0
:1045E0002C4B462F2D2B2E372D1E1E22272B2C29F0
:1045F0002B2534373A3336383F443425160F1217FB
:1046000020252727252B2A282A282721171F465A05
:104610004838383F50594F37333441454035322DB3
:104620002B2E333839322720252524201F3D4431B5
:10463000353F2B1F1E19233B4B4432315A5B342E1E
:104640002D1D21303630213A737A7A7A766E6E7467
:10465000777A7D80848685989D4E393B60B6A08CA4
:104660008B898888888A8B8C8D9EB9BAB794816F24
:10467000322E404B4E493A3236383433353C3F3493
:10468000313641433C342D4D716F6F6E6F707071D8
:104690007170707272716D7AAC9BA49F85B4FAFBD5
:1046A000DD777176716867686769645E5657554F44
:1046B0007E522928292D315D6665686459595C5EF2
:1046C00063636B98422727263138301B6968404462
:1046D000404D3D1911141B1D19192D698C8853303B
:1046E00036463D3330343A4536252A2C392C272B93
:1046F000261713181C1D374D46281C1A1D2F47540A
:104700004A26181616181918150F10304C472E3057
:10471000393D3631363C2820222625233955512C67
:1047200029353E312E2B30372B2220252C2C2928C1
:104730002C2936343536393B4444311F100F1618B6
:104740001C242529282528272625251E1843675F90
:10475000413B5A798A887B61473940453F33323043
:1047600032302F332E2621232624211F2341383295
:10477000383C28201E1B243C47422F315C523030ED
:104780002F252732352B2F6B7A797A786F6E7377D6
:104790007B7E818688898AA999463B3970B5948D3C
:1047A0008B8988898A8A8B8D8F9AB4B7AF8E807BEC
:1047B0005B505B5C575A42343C423B3A424A41357B
:1047C0003639424B4847414C737D74707272717137
:1047D000727272727372706E7C96A2A09282D0FA1C
:1047E000EEB97A76746F6E6E6C6E686147575A5880
:1047F000853F28282B2D3867676869655B5B5C5FA0
:10480000646576923A2A2725333B37286F5E41410B
:104810003F50391813151B1E1A19327495884E3AD9
:1048200047463F32313733402C282D2F392A2A2C46
:1048300024120E151A213D4E3F231B1C1C293B4000
:1048400036201A1718191917140F16375241303419
:10485000393B343137392724262927223A574E2A23
:1048600025313C312D2B3134232623272D2B272690
:10487000282938373334384046422D1E1112181C6F
:104880001E22282C2B2725242424231B4D8A8F68A5
:104890003B4B839EA5A19786756154463D343232C9
:1048A000302B2A28211E2027272321202B4330327A
:1048B0003A37251C1A1A233D483E2B38604A2E30C1
:1048C00038343335342D5F7D777B79726F73777829
:1048D0007D8185898B8B95B28B3E3C3983AF8F8EE2
:1048E0008B88898A8A8A8B8E9098AFB5A488817DBF
:1048F0006F60615F64643E34424A4449504E403ABE
:1049000040434D5E60645E4F8AA68F84817E7B78D3
:10491000757472747574717370849990837A88DE7B
:10492000EBCEA7AAB3846F7170716E59395C57656D
:10493000822F28292D2D446F686A6C675C5D5F6249
:1049400065688295362D2728354144447456414088
:104950004352351813161B1D1A193B809E8B4F4668
:104960004E543F3233373938252B2B33352B312EEC
:10497000220E0B121828444D35201B1D232D3B3EC3
:1049800035221B18181B1A1712111F40553D3331C1
:10499000383E3332373927272B2E2926415A4E2CC1
:1049A00020303B2F2E2B312E1E2524282D2D262561
:1049B0002930393130303B4446402D1B11141C2224
:1049C00023232B2D2D2B252423231F3285B4B578AB
:1049D00036649EA8A7AAAAA59D8A72533C36332E98
:1049E0002726241F1C1D212826222120373E2D3357
:1049F0003E31221B16132D52584F465161402C3424
:104A00004445413B30537D787B79756F73767C905C
:104A1000A5A9968A8F8EA3B77B3C3C3E92A68F8F2A
:104A20008C89898B8B8A8C8E9297ACB29786837F88
:104A30007567646572643736464F5155575349451B
:104A40004E56606D7279897785BEB5A59A928A8136
:104A50007C7876757574727975747776777F77A7B9
:104A6000EDD1B6C2BC82727274746C3A365F557105
:104A70006E2B2E2F302E53716B6D6D655E606264F0
:104A8000696A868E332C27273C6652647A4E433EF1
:104A90004350311B17191F1E1A1A498EA5894C4500
:104AA000555E39323538402F262C2C372F303B328B
:104AB0001E0D0A12192F484A2F1E1B2029303D4176
:104AC0003A261D1A1A1B1A1613152649543C382E5D
:104AD000393F3330383426293031282C485B482F71
:104AE0002833362E2D2C332D1D2324272E2E24251E
:104AF0002E37402F2E2B374649422D1C151B2326BF
:104B000027272C2F302C252523231E3E92BEBC6D3B
:104B1000347BACB0B0B1B6BAB2A2845F3D362F2AB6
:104B200023211F1E1D1F242C282120223F372E3613
:104B30003D2C201812164770827D777661392C3B08
:104B40004E4E4939477979787B767072777E95B287
:104B5000C0C6BF978D97B1B56F3A3D469B9D91906A
:104B60008B8B8B8B8C8A8C8F9297A9A88B86848059
:104B70007A6D6868775C35394B56595D63685D546A
:104B8000586773787B7D99AE91A8C8C0B6A89C91F0
:104B900089827C797776798278757677777D7A8E57
:104BA000E3D8C2CAAD7876767674602A3C605680C7
:104BB00059293030303260726C6D6D6561626467A6
:104BC0006A6E8173332E28244D8F6477804842406B
:104BD000495032222423221E191E5D9DB08C4B3871
:104BE000625E3434333E3C27292D303A323440352E
:104BF0001B0C0C151E374B45271A1B2229303D3F35
:104C00003C2B1E1C1C1D1B16181D2F4D523D3931EF
:104C10003B3C33323A2F22282F2F29314D5D442B34
:104C20002737352E2B2D35271E2222282F2B2425E2
:104C300033414F34272831444B422C1D1A21272A57
:104C4000292A2E30302B24232122213F89B9A24C3E
:104C50003D95BEC3BFBDC0C1B8A889603A322D25FD
:104C6000201F21211F222C312C26212B4030303AAD
:104C70003C2920170F155685A7A29A8E5B302B4C26
:104C800063554943707C767A767173788093AEBCB5
:104C9000C1C4CAAF91A9B7AE61393B519F999291F6
:104CA0008D8B8B8C8C8A8D909396A59B8888858222
:104CB0007E726B6C7651353D535D60667A806A5BBF
:104CC00062747F87828199C2C0AEC4CCC8C0B6A8C6
:104CD0009B928A817979848B7F797978787C7E7EC2
:104CE000CADBC9D19E6D6F6F6C6C632D3F605A82B9
:104CF00047292E2F31376C716F6F6D65636466695C
:104D00006C717E61322F2A235E9E74857C444548F7
:104D10005153342E323127211A266DA7B9954638C2
:104D20007B503436324734262B2E353837384133D2
:104D30001A0D131B253F4D3D231B1E23292D3138F2
:104D4000382C211F201F1B19202439514F3D3A3286
:104D50003E3A32323A3022272B2E29344E5A3D2405
:104D6000253A34302B2E36241F2122282D282126A7
:104D7000354B60492C25314249402A201F262C2DD5
:104D80002B2B3133312924222222335E8BA47C3712
:104D900051AFC8C9C7C6C6C2B4A1845E3A322F2576
:104DA0002224252129373C3B373839423B2D333EDD
:104DB00036251E1611114E85A2AAAE93522E315DD4
:104DC000775E486A81777A7A72737A8392A8B9BFDC
:104DD000C5C6CCC0A0B4B9A3533C3A5CA29794908A
:104DE0008D8C8C8C8B8A8D9095989C928C898683E7
:104DF00080776C6F724834435B626577938C6E6129
:104E00006A7F8A978A818FB5CBC6BFCBD1CCC8C009
:104E1000B2A39A8F7B829597877F7B78787B8183FB
:104E2000C5D9CECD886B6A6565696930425F617DA1
:104E3000392B2C302D41757272706B666565686A0E
:104E40006E72805B332D2A2179AE75886E41494E92
:104E5000525034373C382A221A2A67A0B297404968
:104E60008445353637452B2A2D30383536373D2D9C
:104E7000191318202D454D351F1B22262B2D2F329F
:104E80002D2A2523211F1A1C252B4152493A372F41
:104E90003E3A32333B3127292D2F2D3B535A371FB2
:104EA000263C312F2C3138221F2124272A241D286B
:104EB000374D6A5D3E243043483E2B23252D31304B
:104EC0002D31383A3327211E20234674939A632BC1
:104ED00066B8CACFCECBC7C1B19D83603B34312900
:104EE000272725284352494A515C6B54302F363EC0
:104EF0002C221B151211386B8C9793714337385243
:104F00005F4C618279787A75757D8795A3B7BFC24A
:104F1000C6C8CCC8B4B6B99D4C3C396AA396949126
:104F20008E8D8C8C8B8B8E90979A92908E898683A7
:104F3000807B6F746E3F354962676D8EA19072669B
:104F4000758F9DA9957E85A0C3CBC4C1D0D9D5CE80
:104F5000C4B9AA9D8497A8A3928A83827F838A8AF0
:104F6000C4DCD2B6756D6B6764696B31455D6C737B
:104F70002E2B2D312E51797172716B676766686CBB
:104F80006E748054302B2A229ABF86876341494D24
:104F90005046333C40392B201C26538C988337666F
:104FA000783A35353D38292D303538323336362983
:104FB0001A171F2332494C2F1F22282C2D3035362B
:104FC000302A262523201A1E2530465243333031FD
:104FD0004138323539312D31353433425657321D4F
:104FE000273B32302D32331F1F202428271D1D2B35
:104FF000384D6C6A55322E42483E2D2728303532C6
:1050000031383D40372A221C1E22426D7C7A4D2DBC
:1050100077BBC8CDCDCBC6C0AE9E88674136322D9A
:105020002A2728365D6658606F7D86482A2E373DD0
:105030002D211615121331546C695D5146403B38D1
:1050400035477B7F77787B83868D98A4B0BFC3C4B8
:10505000C9C9CBC5B8B5BA91463D3C77A1969592E2
:10506000908D8D8C8C8B8D9198968F928E8A878463
:10507000807E7376663A39526A6A7A9EA493776F15
:10508000839EACB59E81838FB6C8C6C1BCBFCFD747
:10509000D6D0CBBCA5B4B7AEA39C94989DA9AB9831
:1050A000C2E5D39B6F6F6B67656D562A4C5B75606D
:1050B000292C2E312F61787173706A6667686A6D6A
:1050C0007075804F302C2B28AFCD988957414B4BB2
:1050D000493D343B413A2C1F1E2339656E5C3281B9
:1050E0006D383635402F2B30303E3B313238322848
:1050F0001F1B1F2135494528222D32303137485E8C
:105100005B432F262C2C211F28354B553E312D3447
:1051100042373233393234383437354358522F1E00
:10512000313B312F2D332F1E21222528261B1F2EE8
:105130003C4A6A6C64463640453F33302D30383740
:10514000373A3F4340362E262228314C5C583633BE
:1051500073AAC3C5C7C8C6C1B8AE936E4336332F52
:105160002D292F4E6F7267727F9080342D31394810
:1051700047432E17131435546366666458484243F8
:10518000446D807777778B9A9499A8B1BBC2C6C6D5
:10519000CBCCC6B9B6B4BA843F3E3F819F979693B5
:1051A000918E8D8C8C8C8E9297918D928E8A878425
:1051B000818075755B363D5C6E6E86A2A398807D9E
:1051C00095A6AFB7A7838185A4C2C2C0B8968289CD
:1051D000979AA1999AD7D6C6BCB4AAA79E8D77797B
:1051E000C4E8CB86706F696967542E2A4F5C7B5088
:1051F000292B2F303370777474706967676A6C6D10
:1052000071777F4B322B2A2EB9D9A6865042494D51
:105210004336353B423A2C1F1D272F3D493E3C8DDE
:105220005D36353B3C30303431553D313037342BF1
:10523000221F1D1E374C3E252833382E283959751C
:105240008271492F3D3F35252C374F5239302D344F
:10525000403532353B333B3B3232334359512B20BF
:105260003638302E2D362E2123242728241C223395
:105270004045696B6C57413B403E3632343E4B53A0
:105280005A60625B4E47463A3033363638362C32F7
:10529000608CACBEBCB9BFC1C2BFA1744235312F56
:1052A0002E2F48718882757C8A9761262F333E5C49
:1052B0005D5D5D39162854696D6D6A605551504DBC
:1052C000627F7876757D94979BAAB5BAC0C4CAC828
:1052D000CBCBBBB7B5B4B56E3B3C448E9E97979590
:1052E000928E8D8C8D8C8F92968D8B918E8A8684EA
:1052F00080817973503541646F7392A1A19D8E9323
:10530000A3A9AFB6AD87808396BAC0BDB99D7970A9
:10531000747D7266698EB1B4AA906B4B3C342D6279
:10532000C0DDC579706E686A4B272B2E50617C3FBB
:10533000292A2E2E3D797776746E686868696C6EBE
:1053400072797E45312B2B34B9E0B9814A434B4FFA
:1053500044303139423C2C211F292F2D302B5490C1
:105360004C3533423A373835427736313137372B7F
:1053700023211A1C394C3923293536291F30566F01
:1053800083846944465148302C3A4D4E3A332A368C
:10539000463631383C36434133262741564A292385
:1053A00039322F2F2F372B2524242626221F293848
:1053B0004140696A6D634D3B3E3D36414F586E83B7
:1053C0009297907A68635E4D3B393D3C39322D2E81
:1053D0003F68819EB3B6B6B9C0C2A97540343131B9
:1053E00034476E8F9A8C7E82919043282F334A6285
:1053F0006770644936586F6E6E69605B5A5A575DC4
:10540000797975747388999EAAB6BBBEC4C8CBCA95
:10541000C9C1B8B8B4B5B1623A3C4F999D99999752
:10542000918E8E8C8C8C8E90908A898E8D8A8784BA
:1054300080807D704635476A707E9A9FA09F9AA0B3
:10544000A6A8ACB2AF8D7F838DB0BCBAB79E7E7775
:10545000777E7F72717375715B42332E31383B7486
:105460009DCBBC73716D676A3B262D2F51697633D6
:105470002C2D2F2E4B7D7676746C6869686B6D6F62
:10548000747B7B402F2A283CBFE2CC784645524AA9
:10549000422F3037413F2D2121282C2A29266E8783
:1054A00040333C483B4041385E7B332E373E392CFD
:1054B0002622191E3A4A3122282F2D201624446410
:1054C000776E635751554F3528384A493733283955
:1054D0004434313A393B4D4B392323405344282738
:1054E0003C33312F30372C272525242728353D41C3
:1054F00043396A6B6D6B5A433842596667708BA0AB
:10550000AAA797837875705A43424A493B2D2A309F
:10551000344169889FAFAEA0ADB29A6C3C3331354F
:10552000456889A0A28D8287997B2D2B3038585EE3
:105530005C68544D626F71706A62606261605F7234
:105540007A74727284999FA8B5BCBEC1C7CACCCB0D
:10555000C2B9B8B6B3B5AD5A3D3C5CA19B9B9B9814
:10556000938F8D8C8D8C908F8C88888C8C8A87847F
:10557000818080663D37506E728B9C9E9F9FA0A35A
:10558000A4A7AAAEAF937F848AA5B9B8B49E7E784B
:1055900075727772767A6D564748403942454C7F2E
:1055A00071BB9C6F726C7069392A2B305071682DF9
:1055B000302F312D5A7F7677726B6A68686B6E7107
:1055C000767E793E312A2647C4DFD87146455A5047
:1055D0003F2F2A333E412E1F212827252930897A43
:1055E0003E305875574C45405C79322C3E43392C3F
:1055F00029241B2641472D202527261B182D3C49F1
:1056000054585B565B524931283341403632263C70
:105610004335323B343F52523E242742513D262DE2
:105620003F32302E31372E28252426293349544C39
:105630003F366D6C6E6D5E444B727F776E7F9BA8BC
:10564000A596877F7B7C7967545C6966472A2C40E6
:10565000412B36668D938C7F84877B5A3931324358
:10566000607F95A59D87838C9E5C242D3042606170
:10567000594F42607070726C6464656567666D79DD
:105680007673717E8D8888A7BBBDC2C5CACDCCC2DA
:10569000BAB9B9B7B3B6A14D3C3A6BAA9B9C9C99D9
:1056A00094918E8D8D8D908D898786898B88868348
:1056B0008080825F383A597079959C9C9F9FA1A306
:1056C000A3A5A9AAAD967F83879DB6B7B39D7F7921
:1056D00076726F727161514A50514A49504F5B87DF
:1056E00051747B7277766747342E2A335B7B582957
:1056F0002D2E3130677E78776F6B6A68696B6F73B8
:105700007881773B312C2550C7DAD7664245565110
:105710004130272E39403221222724272C3D9568FD
:105720003C374B5C6C6B793E42732D2D3C3F332DE7
:105730002B27222E45432A242624221922454E4D6A
:105740003D3C48475251432D2A323B3A342E234C9C
:105750005338333B333E5459412529444F39253181
:105760003D332F2F343C342B2425292D42565D52B6
:105770003C366B696977756E7F8E86757790A3A3CB
:1057800094847E7B7A8083736A7A837A5026396E1A
:105790006B402A2F55706D5E5B645E463739465B01
:1057A000748B9A9E8C7F8698963C262E344E606B26
:1057B000624F526D72726C65646667696C6D787762
:1057C0007471767C7B7B83AABDC0C4C9CCCBC3BCBF
:1057D000BAB9B9B7B3B893463D397DAF9C9E9C9A90
:1057E00096928E8C8D8C8E8B868685888A88868311
:1057F00082818362363D5F71869B9B9D9F9FA1A3A3
:10580000A2A5A8A8A9987F818696B1B6B29B807BF5
:10581000787470695D52505355555456565167828D
:10582000484F7B7A715C403A39312A397A83422970
:105830002C2F3039717D7A766E6B6A696B6D70755D
:105840007A877438312D245CCBD6C559404B5645E8
:1058500041352B2B353C3221212121262A4F9A54C8
:1058600037383234321F60202345262A3035323112
:105870002F2C28364739242225221D17264A51531A
:105880003E27323E45493A2E2A313A373027277E85
:105890006536353D334053573D252C434C34233535
:1058A0003A302F2F34413B2B22252B344D5C614B5A
:1058B00037377B8291B2AD9D948F7B788C9FA29578
:1058C000857D7C7B7A8B907F8196967C492258A03F
:1058D0009B663B32313A46434A534A3F3C4D6875DA
:1058E0007F8D96917D798AA48028292D3D55607001
:1058F0006C686F74726E666668696B6E70797B76C1
:1059000073797C7C7F808AB4BFC2C9CAC5C1BDBC63
:10591000BBBAB8B5B4B987433D3C90B49C9F9D9C3D
:1059200098928F8C8C8C8C878484848788888684DA
:105930008281856636436476939D9C9FA1A0A2A137
:10594000A1A4A7A7A79D847E8592ABB6B29A807CBE
:105950007A736A605854545859585858585374793F
:1059600044425F63554A43413A332A3B8676322AA2
:105970002D302F44777B7B746E6B69686B6E71760C
:105980007D896F35302D2468CFD3AB503F595535C5
:10599000403D332D333D34231F201F282966904876
:1059A0003737383C341C06051D322629282E333162
:1059B000322E2E3E4633222124211B17243F4749F5
:1059C00031252429363B3635303739373125399E54
:1059D0005F36373B3343555538212C3E432E233613
:1059E000362D302E334A3D26202D3241545D583D10
:1059F0003436BBC3CBCBBBA5958178899EA4988850
:105A00007E7B7B7A7D999D939BACA577392577B575
:105A1000B386533A343C43434A49443F405B677141
:105A20007F868D84707592AC5C242C2F495B667BDD
:105A30007B7373746D6667696B6D70747A8A7C783A
:105A40007B7E7F80828295BBBEC5C7C2C0BEBDBC07
:105A5000BBBBB8B5B5B67B413F43A2C1A3A09E9DD9
:105A60009A94918E8D8C898483838385888786859B
:105A700083828669364969819D9E9EA0A3A2A3A0C8
:105A8000A2A6A8A7A8A38F7B7F8DA6B3B098807D80
:105A9000776E665D5756575A5C5B5A5B5B567B6AFE
:105AA000413F435257554E453632274890662D2E7A
:105AB00031312F557A7B7B726D6C696A6D6F7479A9
:105AC0007E8C6A36302B2475D1D0974B3E6E5D2E7E
:105AD00043453F33333E36222225232A2979834208
